:020000040000FA
:100000000C9465000C948D000C948D000C948D0064
:100010000C948D000C948D000C948D000C948D002C
:100020000C948D000C948D000C948D000C948D001C
:100030000C948D000C948D000C948D000C948D000C
:100040000C94FB120C948D000C94CA120C94A41204
:100050000C948D000C948D000C948D000C948D00EC
:100060000C948D000C948D007C3C3E5E2B3D3F2F0C
:100070005B5D3B2C2A225C000000000800020100AE
:100080000003040700000000000000000000000062
:10009000250028002B0000000000240027002A0073
:1000A000040404040404040402020202020203031E
:1000B0000303030301020408102040800102040826
:1000C0001020010204081020451311241FBECFEF99
:1000D000D8E0DEBFCDBF28E0AAE8B4E001C01D92A1
:1000E000A336B207E1F714E0A0E0B1E0EAE5F7E3F8
:1000F00002C005900D92AA38B107D9F710E0C5E605
:10010000D0E004C02197FE010E949E19C436D10799
:10011000C9F70E949C130C94AB1B0C94000090E058
:10012000FC01EC54FF4F249180569F4FFC018491B9
:10013000882399F090E0880F991FFC01EA56FF4F41
:10014000A591B491FC01E457FF4F859194918FB72D
:10015000F894EC91E22BEC938FBF0895CF92DF924D
:10016000EF92FF920F931F93CF93DF9341155105A9
:1001700009F16A018C017B01D0E0C0E004C0219646
:10018000CC16DD0669F0D7016D917D01D801ED91A6
:10019000FC910190F081E02DC8010995892B79F738
:1001A000CE01DF91CF911F910F91FF90EF90DF90E3
:1001B000CF900895D0E0C0E0F3CFFC01938D848D03
:1001C000981720F4891B990B019708952FE330E0CD
:1001D000291B3109820F932F911D0895FC01918DE8
:1001E000828D981759F0A28DAE0FBF2FB11D5D966D
:1001F0008C91928D9F5F928F90E008958FEF9FEF8B
:100200000895FC01918D828D981731F0828DE80F51
:10021000F11D858D90E008958FEF9FEF0895FC010B
:10022000918D828D981B892F90E008958CE996E03E
:100230000E940F0121E0892B09F420E0822F08950C
:1002400080E090E0892B21F00E941601811101C00D
:1002500008950C940000FC01A48DA80FB92FB11DC6
:10026000A35EBE4F2C91848D90E001968F739927E9
:10027000848FA689B7892C93A089B1898C918370CA
:1002800080648C93938D848D981308950288F389EC
:10029000E02D80818F7D80830895EF92FF920F93F0
:1002A0001F93CF93DF93EC0181E0888F9B8D8C8D22
:1002B000981799F1062FEB8CF12C8FEFE81AF80ABA
:1002C0008FE3E822FF241E2D03C00FB607FE1CC0DB
:1002D0008C8D8117D1F3EB8DEC0FFD2FF11DE35EBB
:1002E000FE4F00839FB7F894EB8EEA89FB898081EB
:1002F000806280839FBF81E090E0DF91CF911F916A
:100300000F91FF90EF900895E889F989808185FF2A
:10031000DFCFCE010E942B01DBCFE889F9898081F4
:1003200085FFC8CF9FB7F894EE89FF896083E8897D
:10033000F989808183708064DCCFCF93DF93EC01F7
:10034000888D8823B9F0EA89FB89A889B9898081D9
:1003500085FD03C08C9186FD0DC00FB607FCF7CF5D
:10036000808185FFF4CF8C9185FFF1CFCE010E9473
:100370002B01E9CFDF91CF91089590E0FC01E8587F
:10038000FF4F2491FC01EC54FF4F349180569F4F56
:10039000FC018491882391F0211116C0E82FF0E030
:1003A000EE0FFF1FE457FF4FA591B4918FB7F8945C
:1003B000662329F0EC91E32BEC938FBF08959C9179
:1003C000E32FE095E923F8CF233019F160F02730CF
:1003D000E1F02830A1F0243009F7909180009F7D52
:1003E00090938000DBCF213031F02230B9F694B504
:1003F0009F7D94BDD3CF94B59F7794BDCFCF90917F
:10040000B0009F7D9093B000C9CF9091B0009F77CE
:10041000F9CF909180009F77E3CF0F931F938B01CB
:100420009C019FB7F8944091950450919604609177
:1004300097047091980486B5A89B06C08F3F21F061
:100440004F5F5F4F6F4F7F4F9FBF762F652F542FAA
:100450004427480F511D611D711D440F551F661F14
:10046000771F440F551F661F771FFFB7F8948091C1
:10047000950490919604A0919704B0919804E6B5E4
:10048000A89B05C0EF3F19F00196A11DB11DFFBF4C
:10049000BA2FA92F982F88278E0F911DA11DB11D4E
:1004A000880F991FAA1FBB1F880F991FAA1FBB1F68
:1004B000841B950BA60BB70B883E9340A105B10595
:1004C000A0F2015011092109310948515C4F6F4FC9
:1004D0007F4F011511052105310539F61F910F9147
:1004E00008952FB7F89460919104709192048091CF
:1004F0009304909194042FBF0895FF920F931F933C
:10050000CF93DF938C010E947102EB01FF24FA94D8
:10051000FEBC00000DB407FEFDCF8EB58F3F71F01D
:100520000E9471026C1B7D0B6017710788F380E0DD
:10053000DF91CF911F910F91FF90089581E0DF919E
:10054000CF911F910F91FF90089520918A0421115E
:1005500009C021E020938A043091F9072091FA071D
:100560003CBD2DBD60E0FC0184810C94BD0161E0C7
:10057000FC0184810E94BD0180918A048111109246
:100580008A040895CF93DF93EC018F8198859C01B5
:100590002F5F3F4F38872F838230924088F44FEF90
:1005A0004EBD00000DB407FEFDCF8EB58F8198853E
:1005B0009C012F5F3F4F38872F838230924080F31A
:1005C000CE010E94B7021E82DF91CF910895CF9293
:1005D000DF92EF92FF921F93CF93DF93EC01162FE0
:1005E00069017A018E81882319F0CE010E94C2022E
:1005F000CE010E94A5028CE291E00E947D02812F33
:1006000080648EBD00000DB407FEFDCF8EB588E17D
:1006100090E0B701A601082E04C07695679557951E
:1006200047950A94D2F74EBD00000DB407FEFDCFEA
:100630002EB50897883F2FEF920759F785E91123C8
:1006400019F087E81830E9F48EBD00000DB407FEFC
:10065000FDCF8EB590E02FEF2EBD00000DB407FE4C
:10066000FDCF8EB58A8787FF04C09F3F11F09F5F43
:10067000F3CFDF91CF911F91FF90EF90DF90CF905C
:1006800008958FEFE1CF9F92AF92BF92CF92DF920A
:10069000EF92FF920F931F93CF93DF93EC016901C9
:1006A000C801820F931F81309240E0F48E81811146
:1006B00029C0488359836A837B838B85833039F0D3
:1006C00089E0440F551F661F771F8A95D1F79A015D
:1006D000AB0161E1CE010E94E702882309F452C018
:1006E00083E08D83CE010E94B70280E0DF91CF913D
:1006F0001F910F91FF90EF90DF90CF90BF90AF9040
:100700009F90089588819981AA81BB81841795075C
:10071000A607B70771F68F819885C816D90648F2E3
:100720002FEF8C159D0570F42EBD00000DB407FE53
:10073000FDCF8EB58F819885019698878F838C1514
:100740009D0590F3F7019701200F311F9FEF9EBD8C
:1007500000000DB407FEFDCF8EB58193E217F307BD
:10076000B1F78F819885080F191F18870F83898526
:10077000882319F00115124018F08E81811128C0CC
:1007800081E0B4CF0E9471025B0199249A949EBCCF
:1007900000000DB407FEFDCF8EB58A878F3F69F448
:1007A0000E9471026A197B096D32714080F38FE0FB
:1007B0008D83CE010E94B70295CF8E3F11F08DE060
:1007C000F7CF18861F8281E08E8390E080E0A8CF6B
:1007D000CE010E94C20281E089CFFF920F931F9346
:1007E000CF93DF93EC01F22E132F82E141155105D7
:1007F0006105710599F08B85833039F089E0440FEC
:10080000551F661F771F8A95D1F79A01AB0168E1E2
:10081000CE010E94E702882361F084E08D83CE013F
:100820000E94B70280E0DF91CF911F910F91FF905E
:1008300008958EEF8EBD00000DB407FEFDCF8EB57E
:10084000EF2DF12F9F013E5F81918EBD00000DB411
:1008500007FEFDCF8EB52E173F07B1F78FEF8EBD88
:1008600000000DB407FEFDCF8EB58FEF8EBD0000EA
:100870000DB407FEFDCF8EB58FEF8EBD00000DB419
:1008800007FEFDCF8EB58A878F71853031F081E10B
:100890008D83CE010E94B702C2CF0023D1F088E53C
:1008A00092E00E947D02811102C085E1B7CF20E075
:1008B00030E0A9016DE0CE010E94E70281110EC077
:1008C0008FEF8EBD00000DB407FEFDCF8EB58111F8
:1008D00005C0CE010E94B70281E0A5CF84E19ECF82
:1008E0000F9340918B0450918C0460918D04709112
:1008F0008E04411551056105710519F481E00F91D0
:100900000895082F2AE934E080919A0690919B0679
:100910000E94ED03882399F310928B0410928C04AB
:1009200010928D0410928E04E9CF0F93CF93909183
:100930008F04911104C081E0CF910F910895C82FC9
:1009400040910001509101016091020170910301F9
:10095000082F2AE934E080919A0690919B060E9424
:10096000ED03882359F0CC2331F381E00E94700419
:10097000882321F010928F048C2FDECF80E0CF915E
:100980000F9108958F929F92AF92BF92EF92FF9234
:100990000F931F93CF934B015C01C42F80910001F3
:1009A00090910101A0910201B09103018815990570
:1009B000AA05BB0581F440918F044C2B40938F0412
:1009C00081E0CF911F910F91FF90EF90BF90AF907A
:1009D0009F908F90089581E00E949504811102C03C
:1009E00080E0EFCF8AE9E82E84E0F82E00E012E004
:1009F00030E020E0B501A40180919A0690919B0619
:100A00000E944303882361F38092000190920101C8
:100A1000A0920201B0920301CECF8F929F92AF922B
:100A2000BF92CF92DF92EF92FF92CF93DF932BEFA3
:100A300037E030939B0620939A06882391F140E09B
:100A400060E070E0CB010E94C2048823F1F0809145
:100A500058068F77D1F48091640690916506A09135
:100A60006606B091670684369105A105B10568F068
:100A7000C0906006D0906106E0906206F090630638
:100A8000C114D104E104F10479F480E0DF91CF9145
:100A9000FF90EF90DF90CF90BF90AF909F908F909E
:100AA0000895C12CD12C760140E0C701B6010E9407
:100AB000C204882351F38091A5049091A604811566
:100AC000924019F7A091AA04AA23F9F2C091A804B0
:100AD000D091A9042097C9F24091A7044423A9F218
:100AE000A093190840930B0890E080E050E061E08B
:100AF00070E007C021E0280F01968930910509F4C4
:100B0000B6C0E82F9B01082E02C0220F331F0A94A3
:100B1000E2F74217530771F7809314082091B0044D
:100B20003091B10450E040E02115310541F42091AD
:100B3000BE043091BF044091C0045091C104209381
:100B40000C0830930D0840930E0850930F0846018F
:100B500057018C0E9D1EA11CB11C80921A08909208
:100B60001B08A0921C08B0921D08C091AB04D09144
:100B7000AC04D0932008C0931F08B0E00E947A18FC
:100B8000860E971EA81EB91E8092210890922208F8
:100B9000A0922308B0922408CE01880F991F829555
:100BA0009295907F9827807F982781509E4F892F1C
:100BB00099278695A5019401280F391F411D511DC4
:100BC000DA01C9018093150890931608A0931708BD
:100BD000B09318084091AD045091AE0470E060E00D
:100BE0004115510541F44091BA045091BB04609104
:100BF000BC047091BD04C81AD90AEA0AFB0AC40EE3
:100C0000D51EE61EF71E04C0F694E794D794C79449
:100C1000EA95D2F7C0921008D0921108E09212081B
:100C2000F09213088CE035EFC3163FE0D306E104E1
:100C3000F104C8F080E145EFC4164FEFD406E1049B
:100C4000F10488F08091C6049091C704A091C80473
:100C5000B091C9048093210890932208A09323089F
:100C6000B093240880E280931E0881E00FCF209388
:100C700014080BCF4F925F926F927F928F929F9248
:100C8000AF92BF92CF92DF92EF92FF920F931F939A
:100C9000CF93DF93EC016A017B01280139018B8836
:100CA0009C88AD88BE888091000190910101A0913F
:100CB0000201B09103012F89203109F44BC027E0D4
:100CC00076956795579547952A95D1F7840E951E89
:100CD000A61EB71E88159905AA05BB0509F047C0D1
:100CE000E894C7F8DD24EE24FF24F601EE0FFF1F81
:100CF000EE0FFF1FE656FB4F4082518262827382E5
:100D000080918F04816080938F048A89823080F083
:100D10008D819E81AF81B885880D991DAA1DBB1D4F
:100D200080938B0490938C04A0938D04B0938E04D5
:100D300081E0DF91CF911F910F91FF90EF90DF90B5
:100D4000CF90BF90AF909F908F907F906F905F906B
:100D50004F90089577276F2D5E2D4D2D840E951E93
:100D6000A61EB71E88169906AA06BB0659F040E0D3
:100D7000C501B4010E94C2048823D9F28F89803151
:100D800009F0AECFDD24EE24FF24F601EE0FFF1FA5
:100D9000E656FB4F51824082B3CF4F925F926F92E3
:100DA0007F928F929F92AF92BF92CF92DF92EF92FB
:100DB000FF920F931F93CF93DF93E901FC0101850D
:100DC0001285238534850F5F1F4F2F4F3F4F041728
:100DD00015072607370708F453C06A017B018C0109
:100DE000FC0183899489A589B6898090000190903F
:100DF0000101A0900201B09003012789203161F127
:100E00002A013B0127E076946794579447942A95EA
:100E1000D1F7BC01CD01640D751D861D971D861689
:100E20009706A806B90639F5B701A6014F775527E9
:100E300066277727440F551F440F551F46565B4FB3
:100E4000FA0180819181A281B381BF7088839983E7
:100E5000AA83BB8381E015C04D2C5E2C6F2C7724B8
:100E6000BC01CD01640D751D861D971D68157905A2
:100E70008A059B05E1F040E00E94C204811112C086
:100E800080E0DF91CF911F910F91FF90EF90DF9065
:100E9000CF90BF90AF909F908F907F906F905F901A
:100EA0004F900895F8018789803109F0BDCFB701CF
:100EB000A601552766277727440F551F46565B4FD7
:100EC000FA0180819181B0E0A0E0C0CF2F923F92E3
:100ED0004F925F926F927F928F929F92AF92BF924A
:100EE000CF92DF92EF92FF920F931F93CF93DF93F6
:100EF00000D000D01F92CDB7DEB76C013B01FC01E2
:100F00002581222309F4A5C0848180FFA2C04389E2
:100F100054896589768982859385A485B585481726
:100F200059076A077B0709F4AEC0F1E0F9831A821A
:100F300088248394912C160106E0200E311C412C4C
:100F400052E0552E5C0111E0B122F601038D148DA3
:100F5000AC01BD0139E076956795579547953A956F
:100F6000D1F7F801223009F4C5C0F480FA94F422D4
:100F7000F601A114B10409F0B8C0F110B6C0892B74
:100F80008A2B8B2B09F0A3C08789908DA18DB28D00
:100F900086839783A087B187BC01CD016250710918
:100FA00081099109F801258504C0660F771F881F04
:100FB000991F2A95D2F706851785208931890F0D4B
:100FC000111D211D311D600F711F821F931F820192
:100FD0000A191B091D830C838016910610F49D824B
:100FE0008C82F601248126FD53C00C811D810115E0
:100FF000124009F44DC040E00E94C204882349F128
:10100000950126563B4F8C819D81820F931F281797
:10101000390759F0F901D30141914D938E179F077C
:10102000D9F7821B930B680E791EF6018285938592
:10103000A485B5850C811D81800F911FA11DB11D57
:1010400082879387A487B587801A910AF1F025815A
:1010500079CF8FEF9FEF0F900F900F900F900F9021
:10106000DF91CF911F910F91FF90EF90DF90CF9084
:10107000BF90AF909F908F907F906F905F904F90B8
:101080003F902F90089519821A8289819A81E3CF27
:1010900000910001109101012091020130910301A2
:1010A000601771078207930709F4A5CF73010C81BC
:1010B0001D819501AB01BC0180919A0690919B0620
:1010C0000E944303882329F28C819D81ACCF468105
:1010D0005781608571859101C8010E94CD068823E2
:1010E00009F4B7CFF601038D148D86819781A08511
:1010F000B18552CF828D938DA48DB58D8A019B01D0
:10110000080F191F2A1F3B1FC901B80160CF4F925A
:101110005F926F927F92AF92BF92CF92DF92EF92E7
:10112000FF920F931F93CF93DF9300D000D0CDB7E2
:10113000DEB78C0149835A836B837C835901C12CB0
:10114000D12C7601412C82E0582E612C712C09C0E3
:1011500088EF9FEFAFEFBFE0481759076A077B079B
:1011600048F59E012F5F3F4FC8010E94CD0688239E
:1011700039F1F8018585A301920104C0220F331FC4
:10118000441F551F8A95D2F7DA01C901C80ED91E2E
:10119000EA1EFB1E49815A816B817C8187898031DF
:1011A000B9F688EF9FEFA0E0B0E0481759076A074B
:1011B0007B07B8F2F501C082D182E282F38281E03E
:1011C0000F900F900F900F90DF91CF911F910F9183
:1011D000FF90EF90DF90CF90BF90AF907F906F9097
:1011E0005F904F900895CF93DF93FC0125812111EB
:1011F00007C0EC0180911E08803131F0803279F116
:1012000080E0DF91CF91089582E08583178A108E68
:10121000118E128E80911F0890912008B0E0A0E0FE
:1012200025E0880F991FAA1FBB1F2A95D1F7838B32
:10123000948BA58BB68B87E098E09C8F8B8F81E099
:101240008C831E821F82188619861A861B861C862E
:101250001D861E861F86188A198A1A8AD2CF83E0B5
:101260008583409121085091220860912308709154
:101270002408478B508F618F728F9F012D5E3F4FE7
:1012800087E098E00E9487088111D5CFB9CF8F926F
:101290009F92AF92BF92CF92DF92EF92FF920F9305
:1012A0001F93CF93DF93FC012581222309F46DC0A6
:1012B000C388D488E588F688C416D506E606F706FE
:1012C00008F463C04A015B01EC01223009F457C005
:1012D00081149104A104B10409F465C00285138549
:1012E00024853585038CF48DE02D858590E0099665
:1012F000B901A8014150510961097109082E04C0C2
:1013000076956795579547950A94D2F775016401CC
:10131000F1E0CF1AD108E108F10804C0F694E7948F
:10132000D794C7948A95D2F7C416D506E606F70671
:1013300028F0012B022B032B09F03FC08F89988DD9
:10134000A98DBA8D8E839F83A887B9878E010A5F86
:101350001F4F10C04E815F816885798598018B8D04
:101360009C8D0E94CD0691E0C91AD108E108F108D0
:10137000882359F0C114D104E104F10459F78A8695
:101380009B86AC86BD8681E001C080E0DF91CF9175
:101390001F910F91FF90EF90DF90CF90BF90AF9093
:1013A0009F908F900895168217821086118612865C
:1013B00013861486158681E0E9CFC41AD50AE60A99
:1013C000F70AC4CF2F923F924F925F926F927F9213
:1013D0008F929F92AF92BF92CF92DF92EF92FF9245
:1013E0000F931F93CF93DF93CDB7DEB72B970FB635
:1013F000F894DEBF0FBECDBFDC015B962D903C9014
:101400005C971696CD90DD90ED90FC901997C114E5
:10141000D104E104F10409F498C0BFEFCB1ADB0A50
:10142000EB0AFB0A1B86D10119964D915D916D91D6
:101430007C911C978A019B010F5F1F4F2F4F3F4FDD
:101440000D831E832F833887452B462B472B09F4AA
:1014500062C09A87898726013701812C912C54011B
:1014600017C09FEFC91AD90AE90AF90A26013701FC
:10147000BFEF8B1A9B0AAB0ABB0AF10181859285EB
:10148000A385B48588169906AA06BB0608F043C052
:101490008D819E81AF81B8858C159D05AE05BF05F8
:1014A00050F482E0C82ED12CE12CF12C92E0492E90
:1014B000512C612C712C9E012F5F3F4FB701A6016B
:1014C000C1010E94CD06882331F189819A81AB81C7
:1014D000BC81892B8A2B8B2B21F6C414D504E604FE
:1014E000F70431F0AFEFCA1ADA0AEA0AFA0AC0CFF3
:1014F000F2E0CF16D104E104F10468F0F101818536
:101500009285A385B4850196A11DB11D8C159D05FD
:10151000AE05BF0510F580E02B960FB6F894DEBF40
:101520000FBECDBFDF91CF911F910F91FF90EF9034
:10153000DF90CF90BF90AF909F908F907F906F90F3
:101540005F904F903F902F900895F101C080D1801F
:10155000E280F380F1E0FB8766CF0FEF1FEF2FEF04
:101560003FE0B701A601C1010E943A06882399F223
:10157000E985FA8546815781608571854115510558
:1015800061057105D9F0423051056105710518F208
:10159000F10181859285A385B4850196A11DB11DB8
:1015A00084179507A607B70708F4B5CF97018601FA
:1015B000C1010E943A06882309F4ADCFA985BA85F6
:1015C0001696CD92DD92ED92FC921997BB85BB23C6
:1015D00051F0D701C6010196A11DB11DF101808313
:1015E0009183A283B383A985BA8514968C911497AD
:1015F00057964D915D916D917C915A97452B462B55
:10160000472B31F4FD01C78AD08EE18EF28E8068BF
:101610008062A985BA8514968C9381E07DCF1F9353
:10162000CF93DF93EC01162F8C8187FD0AC0111137
:1016300002C08F7E8C83812FDF91CF911F910C94FC
:1016400095046E857F858889998941E00E94C2044E
:10165000882311F1EA8980E2E89FF0011124E6561F
:10166000FB4F3097C9F08D81823040F48B899C8983
:10167000AD89BE89848F958FA68FB78F8F89988DFE
:10168000938F828F8F89988DA98DBA8DB58BA48BFE
:101690008C818F778C83CBCF80E0DF91CF911F91AE
:1016A0000895FF920F931F93CF93DF93FC01258141
:1016B000213041F090E080E0DF91CF911F910F91B8
:1016C000FF900895248121FFF5CFEC0122FF12C085
:1016D000438954896589768982859385A485B585F2
:1016E00084179507A607B70729F0CF010E9447097D
:1016F000882301F300919A0610919B06C8010E946D
:10170000A5028FEF8EBD00000DB407FEFDCFFEB425
:10171000C8010E94B702FFEFFF12CCCF8C8185FF7A
:101720000BC09D81992329F060E0CE010E940F0B30
:101730008C818F7D8C83BECF40918B0450918C0423
:1017400060918D0470918E04452B462B472B51F4EC
:1017500080618C832A853B85317080E092E0821B1A
:10176000930BAACF80E00E947004A4CFCF93DF93A5
:10177000FC012581211104C080E0DF91CF91089503
:10178000EC0161E00E940F0B8823B1F31D8281E020
:10179000DF91CF9108952F923F924F925F926F9277
:1017A0007F928F929F92AF92BF92CF92DF92EF92F1
:1017B000FF920F931F93CF93DF93CDB7DEB72D9793
:1017C0000FB6F894DEBF0FBECDBF7C014B015A8728
:1017D0004987DC0115968C911597813001F181E0E4
:1017E00090E0F7019383828380E090E02D960FB61E
:1017F000F894DEBF0FBECDBFDF91CF911F910F9147
:10180000FF90EF90DF90CF90BF90AF909F908F9020
:101810007F906F905F904F903F902F900895149617
:101820001C91149711FFDBCF1A968D919D910D900D
:10183000BC91A02DAC01BD0112FF2FC0F701438860
:10184000548865887688481659066A067B06B1F47E
:1018500049845A84452831F513FF0DC0D7011596E8
:101860008C91882309F4BBCF61E0C7010E940F0B64
:10187000882309F4B4CF89859A85B8CFB301A20132
:10188000C7010E944709882309F4A9CFF70182857F
:101890009385A485B585AC01BD0149845A8445284A
:1018A00009F4AAC0A984BA8412951F70109511700A
:1018B0001B87212CE2E03E2EF701038CF48DE02DF6
:1018C000FD87EC87248121502A013B0139E0769481
:1018D0006794579447943A95D1F724218A0111705F
:1018E000F701468157816085718521119DC00115E1
:1018F000110509F0FFC0411551056105710509F099
:101900002EC14788508C618C728C41145104610443
:10191000710409F459C1D70116964D925D926D92EA
:101920007C921997F2E04F1A510861087108AC8552
:10193000BD851D968C911D9704C0440C551C661CDA
:10194000771C8A95D2F71E964D915D916D917C9191
:101950005197440E551E661E771EA114B2E0BB06B9
:1019600008F093C06501F70182859385A485B5854C
:10197000F701438954896589768984179507A607F5
:10198000B70708F0D8C041E0C301B2010E94C20409
:10199000882309F424CF06561B4F98012C0D3D1DBA
:1019A000A60170E060E00217130789F0D401F80186
:1019B0008D9181932E173F07D9F70F5F1F4F81E05D
:1019C00090E0801B910B820F931F880E991EAC181C
:1019D000BD08F70182859385A485B585480F591FF9
:1019E0006A1F7B1FDB01CA014287538764877587A3
:1019F000A114B10409F060CFD70114961C9114977B
:101A000053968D919D910D90BC91A02D84179507B3
:101A1000A607B70708F020CFF701438B548B658BDF
:101A2000768B1068148318CF6101C01AD10AEC8537
:101A3000FD854684578460887188420E511C611C64
:101A4000711C4D825E826F8278862A013B01F2E032
:101A50004F1A510861087108EC85FD85258504C081
:101A6000440C551C661C771C2A95D2F72D813E81AB
:101A70004F815885420E531E641E751EAC14BD0462
:101A800098F1C11432E0D30681F580910001909164
:101A90000101A0910201B0910301481659066A069E
:101AA0007B0659F48FEF9FEFDC0180930001909348
:101AB0000101A0930201B09303010B859401B301CE
:101AC000A20180919A0690919B060E94ED038823C3
:101AD00009F485CE9EEF991A40E052E060E070E094
:101AE000C12C82E0D82E73CF65010115110509F4D0
:101AF0003FCF49CF6101C01AD10A2A013B0122E040
:101B0000421A510861087108EC85FD85258504C0DD
:101B1000440C551C661C771C2A95D2F746855785C0
:101B200060897189440E551E661E771EAC14BD0473
:101B3000E0F6650128CF81E00E949504882309F42E
:101B40004ECE4092000150920101609202017092CB
:101B5000030180918F04816080938F041CCF9E01CC
:101B60002F5F3F4F8C859D850E94CD06882309F409
:101B70003CCEF701038CF48DE02DFD87EC87498086
:101B80005A806B807C808789803109F449C088EF56
:101B90009FEFAFEFBFE0481659066A067B0608F4D0
:101BA000BACEC7010E94E209882309F418CED701F2
:101BB0005B960D90BC91A02DBD87AC87F701468048
:101BC000578060847184AECEC7010E94E2098823E9
:101BD00009F405CED7015B96ED91FC915C971696C2
:101BE0004D905D906D907C901997B2E04B1A510822
:101BF00061087108858504C0440C551C661C771C5F
:101C00008A95D2F74685578560897189440E551E9D
:101C1000661E771EA114E2E0BE0608F036CFA2CE03
:101C200088EF9FEFA0E0B0E0B6CFCF93DF931F9295
:101C3000CDB7DEB7698341E050E0BE016F5F7F4FF3
:101C40000E94CB0B0F90DF91CF9108950895FC0176
:101C5000818D928D009739F0FC012581222319F0A6
:101C600061E00C940F0B0895DC015996ED91FC9105
:101C70003097C1F083899489A589B68942855385B7
:101C800064857585841B950BA60BB70B811520E821
:101C90009207A105B10508F408958FEF9FE7A0E032
:101CA000B0E0089590E080E00895CF93DF931F9215
:101CB000CDB7DEB7FC01818D928D009739F0BE0162
:101CC0006F5F7F4F0E946607019731F08FEF9FEFA4
:101CD0000F90DF91CF910895898190E00F90DF916F
:101CE000CF910895EF92FF920F931F93CF93DF93BD
:101CF0001F92CDB7DEB7FC01818D928DF12CE12CC6
:101D00000097C1F08F01BE016F5F7F4F0E94660791
:101D10000197C9F4E980F12CF801818D928DFC01C5
:101D20004285538564857585415051096109710962
:101D30000E944709C7010F90DF91CF911F910F912A
:101D4000FF90EF900895EE24EA94FE2CF3CFDC018F
:101D500059968D919C91009739F0DC01ED91FC91A1
:101D60000480F581E02D099490E080E00895CF9300
:101D7000DF93EC01E98DFA8D309761F013821282C6
:101D8000898D9A8D0E94CB0BE98DFA8D228133814A
:101D9000232B31F081E090E09B838A8390E080E008
:101DA000DF91CF910895CF93DF931F92CDB7DEB728
:101DB0006983DC01ED91FC910280F381E02D41E02B
:101DC00050E0BE016F5F7F4F09950F90DF91CF917B
:101DD0000895FC0101900020E9F73197AF01481BFD
:101DE000590BBC018CE996E00C94AE00CF93DF93C5
:101DF0000E94E90EEC018AE391E00E94E90E8C0F4B
:101E00009D1FDF91CF910895CF92DF92EF92FF92C5
:101E10000F931F93CF93DF93CDB7DEB7A1970FB684
:101E2000F894DEBF0FBECDBF19A2423008F44AE0DD
:101E3000C42ED12CF12CE12C8E010F5D1F4F08C058
:101E4000E05DD801EE938D01232B242B252B89F007
:101E5000A70196010E947C19E62FB901CA01EA3058
:101E60007CF3E95CD801EE938D01232B242B252BE9
:101E700079F790E080E0109719F0CD010E94E90E0B
:101E8000A1960FB6F894DEBF0FBECDBFDF91CF9104
:101E90001F910F91FF90EF90DF90CF9008951F93C7
:101EA000CF93DF93EC0180E2689FF0011124E656A6
:101EB000FB4F9385917121F0842F827409F043C008
:101EC000142F6A8B8091000190910101A091020171
:101ED000B09103018E879F87A88BB98B4489558960
:101EE00070E060E0BA01552744274F8B588F698F07
:101EF0007A8F828D938DB0E0A0E0842B952BA62B5A
:101F0000B72B8F8B988FA98FBA8F23852871C9F42F
:101F1000848D958DA68DB78D8B8B9C8BAD8BBE8B59
:101F200081E08D831F701C831E821F821886198694
:101F30001A861B861C861D8681E0DF91CF911F913A
:101F40000895203129F080E0DF91CF911F9108950D
:101F50009E012D5E3F4FAC01BD018B8D9C8D0E947B
:101F60008708882381F384E0DCCF4F925F926F92E1
:101F70007F928F929F92AF92BF92CF92DF92EF9219
:101F8000FF920F931F93CF93DF93CDB7DEB72C97BC
:101F90000FB6F894DEBF0FBECDBF6C01FE013196C7
:101FA0007E018CE0E80EF11C80E28193EE16FF06C4
:101FB000E1F7DA0180E047E03D91732E332361F0D1
:101FC0003E3209F095C04A3009F479C088E04AE011
:101FD0003D91732E3111F4CF8981803209F46FC0A5
:101FE000622E8B01DB015B968D919C915C97F601D3
:101FF000948F838F16961D921D921D921C92199795
:10200000FB011286138614861586412C812C912C97
:102010005401F80183899489A589B689881699069F
:10202000AA06BB0608F0A1C095E0B694A7949794C1
:1020300087949A95D1F7F82DFF705F2ED8011596E9
:102040008C918230E0F1B701C8010E9466070197C8
:10205000B9F5F80182849384A484B584FFE18F0EDE
:10206000911CA11CB11CD8011A968D929D92AD9223
:10207000BC921D97B0E25B9EF0011124E656FB4F27
:102080003097E9F08081882309F451C0853E09F436
:1020900069C04BE050E0BF01CE0101960E94861B53
:1020A000892B09F0B6CF462D652DC6010E944F0F32
:1020B000782E06C0862D8271823109F408C1712CF8
:1020C000872D2C960FB6F894DEBF0FBECDBFDF91E3
:1020D000CF911F910F91FF90EF90DF90CF90BF9025
:1020E000AF909F908F907F906F905F904F900895EA
:1020F000E8E6F0E003C03196391709F394919111A5
:10210000FACF4817E0F29FED930F9E35C0F69FE996
:10211000930F9A3118F450EE752E730EE1E0F0E053
:10212000EC0FFD1FE80FF11D70828F5F45CF41104E
:10213000C1CFD60152965C925297409100015091C6
:10214000010160910201709103011E964D935D9310
:102150006D937C9351978081882309F4ABCF4424FD
:10216000439457CF4110FBCFE4CF862D827182314B
:1021700009F0A5CF4110ABC08581823009F49FCF13
:10218000C8010E94E209882309F499CFD8015B961F
:10219000ED91FC915C978585282F16968D909D90EA
:1021A000AD90BC901997B2E08B1A9108A108B108C4
:1021B00004C0880C991CAA1CBB1C8A95D2F7868582
:1021C0009785A089B189880D991DAA1DBB1D7480B2
:1021D0007720B9F1872C912CB12CA12CE1E08E1A3B
:1021E0009108A108B108880E991EAA1EBB1E8AE993
:1021F000E82E86E0F82E81E00E949504882309F4F9
:102200005ECFEAE9F4E01192EE16FF06E1F7809264
:10221000000190920101A0920201B092030180910D
:102220008F04816080938F047A94F1E08F1A910873
:10223000A108B1087110DFCFD8015B96ED91FC9138
:10224000258580E092E0A0E0B0E004C0880F991FEF
:10225000AA1FBB1F2A95D2F7F801438954896589C3
:102260007689840F951FA61FB71F838B948BA58B30
:10227000B68BD60152961C928AE994E0FC013A96FC
:1022800026E1DF011D922A95E9F72BE0FE01319648
:10229000DC0101900D922A95E1F721E238E2FC0180
:1022A000318B208B40E058E057874687338B228B59
:1022B000318F208F578B468B81E00E9495048823B5
:1022C00009F4FDCE462DD60152966C91EECEF60164
:1022D000668577858089918941E00E94C2048823C0
:1022E00009F4EDCED60152968C91B0E28B9FC001DD
:1022F000112486569B4F009709F6E1CEEF92FF928C
:102300000F931F93CF93DF93EC017B018A011B8214
:102310001A8288EE93E0A0E0B0E08C839D83AE83C8
:10232000BF838CE291E0998388838DE190E00E94E5
:10233000A4199A8F898F009779F02DE1F701DC01BC
:1023400001900D922A95E1F74CE050E0B801CE01E2
:102350000C960E949C1B188EDF91CF911F910F91BC
:10236000FF90EF900895DF92EF92FF920F931F93EB
:10237000CF93DF93CDB7DEB7C755D1090FB6F89429
:10238000DEBF0FBECDBF8C01D62E1C821B8280E229
:10239000E82E81E0F82EFA82E9821E82CE010196B3
:1023A0000E94F3088B819C819EAF8DAFFCAEEBAE9B
:1023B0008D818FAF8E8121968FAF21974F81588568
:1023C00069857A8525964CAF5DAF6EAF7FAF259757
:1023D0004B855C856D857E8529964CAF5DAF6EAF74
:1023E0007FAF29974F85588969897A892D964CAF97
:1023F0005DAF6EAF7FAF2D979B892E969FAF2E97C7
:102400004C895D896E897F8962964CAF5DAF6EAFF6
:102410007FAF6297488D598D6A8D7B8D66964CAFE4
:102420005DAF6EAF7FAF66972C8D3D8D68963FAFE9
:102430002EAF689719A218A2FF8EEE8E1BA28823DA
:1024400009F457C02D2D41EA51E0BE01655C7F4F74
:10245000CE014E960E94B50F882309F44AC0CE01E2
:10246000CB960E94B60B8D2D8670863009F463C022
:1024700088A199A19C838B83FA82E9828AA18D83AA
:102480008BA18E838CA19DA1AEA1BFA18F839887C4
:10249000A987BA8788A599A5AAA5BBA58B879C877C
:1024A000AD87BE878CA59DA5AEA5BFA58F87988B50
:1024B000A98BBA8B88A98B8B89A99AA9ABA9BCA92E
:1024C0008C8B9D8BAE8BBF8B8DA99EA9AFA9B8AD10
:1024D000888F998FAA8FBB8F89AD9AAD9D8F8C8F76
:1024E00041EA51E0BE016F5F7F4FC8010E947E113B
:1024F00012C0F8011382128288EE93E0A0E0B0E0EF
:1025000084839583A683B7838CE291E09183808353
:10251000128E118E1486C801C95ADF4F0FB6F89477
:10252000DEBF0FBECDBFDF91CF911F910F91FF9006
:10253000EF90DF90089549A95AA96BA97CA9CE0113
:102540004E960E94470994CF1F920F920FB60F929A
:1025500011242F933F934F935F936F937F938F93A8
:102560009F93AF93BF93EF93FF938CE996E00E9404
:102570002B01FF91EF91BF91AF919F918F917F912F
:102580006F915F914F913F912F910F900FBE0F90E0
:102590001F9018951F920F920FB60F9211242F9330
:1025A0008F939F93EF93FF93E091AC06F091AD066C
:1025B0008081E091B206F091B30682FF0BC080816A
:1025C000FF91EF919F918F912F910F900FBE0F90E0
:1025D0001F90189520818091B5068F5F9091B60667
:1025E000891771F3E091B506F0E0E456F94F258FB5
:1025F0008093B506E5CF1F920F920FB60F9211246C
:102600002F933F938F939F93AF93BF9380919104A8
:1026100090919204A0919304B0919404309190040D
:1026200023E0230F2D3768F126E8230F0296A11D22
:10263000B11D209390048093910490939204A093F1
:102640009304B09394048091950490919604A09182
:102650009704B09198040196A11DB11D8093950433
:1026600090939604A0939704B0939804BF91AF9170
:102670009F918F913F912F910F900FBE0F901F90C0
:1026800018950196A11DB11DD4CFECE9F6E0138297
:10269000128288EE93E0A0E0B0E084839583A68365
:1026A000B7832EE031E03183208325EC30E035879D
:1026B000248724EC30E03787268720EC30E0318B0C
:1026C000208B21EC30E0338B228B22EC30E0358BF9
:1026D000248B26EC30E0378B268B118E128E138ED6
:1026E000148EE9EFF7E020E520831182EBEFF7E0AD
:1026F000158216821186138642E050E060E070E099
:10270000448755876687778713A215A614A620E20B
:1027100031E033A722A717A6E4E4F8E0138212827F
:1027200084839583A683B7838CE291E09183808331
:10273000128E118E14860895CF93DF93CDB7DEB736
:102740006B970FB6F894DEBF0FBECDBF789484B5FB
:10275000826084BD84B5816084BD85B5826085BD9D
:1027600085B5816085BD80916E00816080936E002B
:10277000109281008091810082608093810080911D
:1027800081008160809381008091800081608093CE
:1027900080008091B10084608093B1008091B0008E
:1027A00081608093B00080917A00846080937A0089
:1027B00080917A00826080937A0080917A008160B3
:1027C00080937A0080917A00806880937A001092DA
:1027D000C10082EE8AB983EE8BB917B818B88DE2C2
:1027E00084B980E185B980E480937C0084EC809397
:1027F0007A0080917A0086FDFCCFE091AC06F091E2
:10280000AD0682E08083E091A806F091A9061082CF
:10281000E091AA06F091AB068FEC80831092B4068B
:10282000E091B006F091B10686E08083E091AE06BB
:10283000F091AF06808180618083E091AE06F091D7
:10284000AF06808188608083E091AE06F091AF068C
:10285000808180688083E091AE06F091AF06808130
:102860008F7D808364EF71E080E090E00E940D0234
:102870008DE391E00E94F60E64EF71E080E090E05D
:102880000E940D028CE391E00E94F60E8EE491E02E
:102890000E94F60E80912A088111EDC2109206085E
:1028A00010920408109201081092000888E08093AA
:1028B000FF070E9471028B018091FF070E948F0029
:1028C00061E08091FF070E94BD01FFB6F8948091FE
:1028D0009904811123C0EAEAF0E08491EEEBF0E084
:1028E0009491E82FF0E0EE0FFF1FEA56FF4FA591FD
:1028F000B4918C91982309F4C3C28AE00E948F009E
:102900008CB580618CBD8CB580648CBD8DE00E94DF
:102910008F008BE00E948F00809199048F5F8093DD
:102920009904FFBE82E58093F9071092FA078CBDE7
:102930001DBC8AE09FEF9EBD00000DB407FEFDCFD9
:102940002EB58150C1F78BEF97E00E94A50208C019
:102950000E947102601B710B613D774008F09FC2BD
:1029600020E030E0A90160E08BEF97E00E94E702F1
:10297000F82E8093050881E0F812EACF2AEA31E0C8
:1029800040E050E068E08BEF97E00E94E70282FFB2
:102990003EC0F0920608C12CD12C760108C00E94DE
:1029A0007102601B710B613D774008F06EC220E040
:1029B00030E0A90167E38BEF97E00E94E702A701EF
:1029C000960169E28BEF97E00E94E7028093050889
:1029D0008111E5CF80910608823009F46CC28BEF3B
:1029E00097E00E94B70280E58093F9071092FA07FA
:1029F00081E00E940D05882309F456C285E298E023
:102A00000E94F3088823C9F08CE691E018C084E0A6
:102A10002FEF2EBD00000DB407FEFDCF9EB59093A5
:102A200005088150B1F782E09A3A09F430C28093E8
:102A300000088BEF97E00E94B7028DE791E00E94BB
:102A4000F60E87E891E00E94F60E67E1CE0101964E
:102A50000E94B3118B819C81909347088093460814
:102A60008D819E81AF81B8858093480890934908F5
:102A7000A0934A08B0934B0889859A85AB85BC859D
:102A800080934C0890934D08A0934E08B0934F0844
:102A9000DE011D96E0E5F8E08D91819388E0ED354B
:102AA000F807D1F7EA8DFB8DF0935E08E0935D089F
:102AB000309709F4DBC18581882309F4D7C18AEAFC
:102AC00091E00E94F60E6CE270E090E080E00E94DF
:102AD000C91A8C01892B09F4ADC18CE2E9ECF1E053
:102AE000D80101900D928A95E1F74BE250E0B801D0
:102AF00084E498E00E94B70E80915D0890915E0892
:102B0000009761F00E94B60B80915D0890915E087D
:102B10000E94401A10925E0810925D08C8010E943F
:102B2000401A81E092E00E94F60E61E0CE0101962B
:102B30000E94B3118B819C81909347088093460833
:102B40008D819E81AF81B885809348089093490814
:102B5000A0934A08B0934B0889859A85AB85BC85BC
:102B600080934C0890934D08A0934E08B0934F0863
:102B7000DE011D96E0E5F8E08D91819388E0ED356A
:102B8000F807D1F7EA8DFB8DF0935E08E0935D08BE
:102B9000309709F486C18581882309F482C18AE1CE
:102BA00092E00E94F60E09C084E498E00E94550E5F
:102BB000682F8CE996E00E944D0184E498E00E9421
:102BC000340E892B89F780915D0890915E080097FB
:102BD00061F00E94B60B80915D0890915E080E94A2
:102BE000401A10925E0810925D088CE391E00E94FA
:102BF000F60E80E492E00E94F60E68EE73E080E04C
:102C000090E00E940D028CE391E00E94F60E82E7B4
:102C100092E00E94F60E68EE73E080E090E00E9481
:102C20000D028CE792E00E94F60E8BB18F718BB98A
:102C30005D9A68EE73E080E090E00E940D0283E907
:102C400092E00E94F60E8BB18F718BB95E9A68EE9E
:102C500073E080E090E00E940D028AEA92E00E9418
:102C6000F60E8BB18F718BB95F9A68EE73E080E0DE
:102C700090E00E940D0281EC92E00E94F60E60E16D
:102C800077E280E090E00E940D028BE093E00E94EA
:102C9000F60E2A9A68E873E180E090E00E940D0247
:102CA0008FE593E00E94F60E2A9868E873E180E0D1
:102CB00090E00E940D028CE391E00E94F60E86EBFC
:102CC00093E00E94F60E68EE73E080E090E00E94D0
:102CD0000D028FEB93E00E94F60E68E873E180E04E
:102CE00090E00E940D0280E094E00E94E90E809145
:102CF0007C00807F80937C0080917C0080937C00AE
:102D000080917A00806480937A0080917A0086FDB9
:102D1000FCCF609178007091790090E080E00E9493
:102D20007F1720E030E44CE950E40E94BC1726E60F
:102D300036E64CE852E40E94BC170E943D196B0134
:102D40007C014AE00E94040F8FE194E00E94F60E9D
:102D500083E294E00E94E90E2A9A64EF71E080E039
:102D600090E00E940D0280917C00807F80937C0027
:102D700080917C00816080937C0080917A008064E7
:102D800080937A0080917A0086FDFCCF6091780074
:102D90007091790090E080E00E947F1720E030E49D
:102DA0004CE950E40E94BC1725E535E545E551E4C2
:102DB0000E94BC170E943D194B015C014AE00E9431
:102DC000040F8BE494E00E94F60E2A988FE494E0BE
:102DD0000E94E90EA7019601C501B4010E946C1979
:102DE0000E947F1720E034E244E759E40E94CB18A8
:102DF0000E943D194AE00E94040F86E794E00E9479
:102E0000F60E68EE73E080E090E00E940D028AE723
:102E100094E00E94F60E00E010E00115110549F063
:102E20000E9416018823C9F30E94000001151105B4
:102E3000B9F7FFCF50E040E070E060E084E498E054
:102E40000E94B70E80915D0890915E08009709F48A
:102E500068CE0E94B60B80915D0890915E080E943A
:102E6000401A10925E0810925D085BCE85EF91E0EB
:102E70000E94F60E56CE85E298E00E94B60B0ECD6B
:102E800061E08AE00E94BD0138CD88E0D0CD80931A
:102E90000608C12CD12CE12C80E4F82E88CD81E0ED
:102EA000C6CD84E592E0A7CE80E00E940D05882380
:102EB00009F4C3CDA3CD20E030E0A9016AE38BEF94
:102EC00097E00E94E702882311F086E0B0CD8FEFF3
:102ED0008EBD00000DB407FEFDCF8EB5807C803C1A
:102EE00019F483E08093060883E09FEF9EBD000005
:102EF0000DB407FEFDCF2EB58150C1F770CDE8941B
:102F000009C097FB3EF490958095709561957F4F31
:102F10008F4F9F4F9923A9F0F92F96E9BB279395DF
:102F2000F695879577956795B795F111F8CFFAF4EF
:102F3000BB0F11F460FF1BC06F5F7F4F8F4F9F4F20
:102F400016C0882311F096E911C0772321F09EE87E
:102F5000872F762F05C0662371F096E8862F70E0E4
:102F600060E02AF09A95660F771F881FDAF7880FBE
:102F70009695879597F908950E94CF170C9440185D
:102F80000E94321838F00E94391820F0952311F071
:102F90000C9429180C942F1811240C9474180E9466
:102FA000511870F3959FC1F3950F50E0551F629F24
:102FB000F001729FBB27F00DB11D639FAA27F00D92
:102FC000B11DAA1F649F6627B00DA11D661F829FB9
:102FD0002227B00DA11D621F739FB00DA11D621F9E
:102FE000839FA00D611D221F749F3327A00D611DBB
:102FF000231F849F600D211D822F762F6A2F11249D
:103000009F5750409AF0F1F088234AF0EE0FFF1FCF
:10301000BB1F661F771F881F91505040A9F79E3F26
:10302000510580F00C9429180C9474185F3FE4F358
:10303000983ED4F3869577956795B795F795E7957C
:103040009F5FC1F7FE2B880F911D9695879597F985
:10305000089597F99F6780E870E060E008959FEF1A
:1030600080EC089500240A9416161706180609061F
:10307000089500240A9412161306140605060895EE
:10308000092E0394000C11F4882352F0BB0F40F476
:10309000BF2B11F460FF04C06F5F7F4F8F4F9F4FB6
:1030A000089557FD9058440F551F59F05F3F71F038
:1030B0004795880F97FB991F61F09F3F79F087959F
:1030C0000895121613061406551FF2CF4695F1DF28
:1030D00008C0161617061806991FF1CF86957105B8
:1030E000610508940895E894BB2766277727CB01EC
:1030F00097F908950E94BC18A59F900DB49F900D5C
:10310000A49F800D911D112408952F923F924F92FC
:103110005F926F927F928F929F92AF92BF92CF9267
:10312000DF92EF92FF920F931F93CF93DF93CDB770
:10313000DEB7CA1BDB0B0FB6F894DEBF0FBECDBFE8
:1031400009942A88398848885F846E847D848C84B9
:103150009B84AA84B984C884DF80EE80FD800C81C2
:103160001B81AA81B981CE0FD11D0FB6F894DEBFA5
:103170000FBECDBFED010895A29FB001B39FC00166
:10318000A39F700D811D1124911DB29F700D811D93
:103190001124911D08950E94DF180C9440180E947C
:1031A000391858F00E94321840F029F45F3F29F096
:1031B0000C94291851110C9474180C942F180E9417
:1031C000511868F39923B1F3552391F3951B550BCF
:1031D000BB27AA2762177307840738F09F5F5F4FEA
:1031E000220F331F441FAA1FA9F335D00E2E3AF029
:1031F000E0E832D091505040E695001CCAF72BD041
:10320000FE2F29D0660F771F881FBB1F2617370791
:103210004807AB07B0E809F0BB0B802DBF01FF27C3
:1032200093585F4F3AF09E3F510578F00C9429185F
:103230000C9474185F3FE4F3983ED4F38695779529
:103240006795B795F7959F5FC9F7880F911D96957C
:10325000879597F90895E1E0660F771F881FBB1FD8
:10326000621773078407BA0720F0621B730B840B85
:10327000BA0BEE1F88F7E09508950E94591888F060
:103280009F5798F0B92F9927B751B0F0E1F0660F2A
:10329000771F881F991F1AF0BA95C9F714C0B1306B
:1032A00091F00E947318B1E008950C947318672F81
:1032B000782F8827B85F39F0B93FCCF3869577959A
:1032C0006795B395D9F73EF4909580957095619583
:1032D0007F4F8F4F9F4F0895DB018F939F930E94E5
:1032E0007A18BF91AF91A29F800D911DA39F900D61
:1032F000B29F900D11240895A1E21A2EAA1BBB1BA8
:10330000FD010DC0AA1FBB1FEE1FFF1FA217B307B1
:10331000E407F50720F0A21BB30BE40BF50B661FC7
:10332000771F881F991F1A9469F76095709580958B
:1033300090959B01AC01BD01CF010895EE0FFF1FD9
:103340000590F491E02D09940F931F93CF93DF9391
:103350008230910510F482E090E0E0916108F091F4
:10336000620830E020E0B0E0A0E0309799F4211549
:10337000310509F44AC0281B390B24303105D8F532
:103380008A819B816115710589F1FB019383828399
:10339000FE0111C0408151810281138148175907F4
:1033A000E0F04817590799F4109761F012960C93C2
:1033B000129713961C933296CF01DF91CF911F91F4
:1033C0000F9108950093610810936208F4CF2115BE
:1033D000310551F04217530738F0A901DB019A017A
:1033E000BD01DF01F801C1CFEF01F9CF9093620871
:1033F00080936108CDCFFE01E20FF31F819391937B
:103400002250310939832883D7CF20915F0830912A
:103410006008232B41F4209106013091070130937D
:10342000600820935F082091040130910501211567
:10343000310541F42DB73EB7409108015091090183
:10344000241B350BE0915F08F0916008E217F30749
:10345000A0F42E1B3F0B2817390778F0AC014E5F04
:103460005F4F2417350748F04E0F5F1F50936008D9
:1034700040935F08819391939FCFF0E0E0E09CCF71
:10348000CF93DF930097E9F0FC0132971382128209
:10349000A0916108B0916208ED0130E020E0109742
:1034A000A1F420813181820F931F20915F08309118
:1034B00060082817390709F061C0F0936008E093AD
:1034C0005F08DF91CF910895EA01CE17DF07E8F595
:1034D0004A815B819E0141155105B1F7E901FB83EA
:1034E000EA8349915991C40FD51FEC17FD0761F488
:1034F000808191810296840F951FE90199838883C9
:10350000828193819B838A83F0E0E0E012968D9123
:103510009C9113970097B9F52D913C911197CD018E
:103520000296820F931F20915F0830916008281740
:10353000390739F6309751F51092620810926108F8
:10354000B0936008A0935F08BCCFD383C28340814F
:103550005181840F951FC817D90761F44E5F5F4FE3
:1035600088819981480F591F518340838A819B81AB
:10357000938382832115310509F0B0CFF09362085F
:10358000E09361089ECFFD01DC01C0CF138212825F
:10359000D7CFB0E0A0E0EFECFAE10C9487188C01F3
:1035A000009751F4CB010E94A4198C01C801CDB73A
:1035B000DEB7E0E10C94A318FC01E60FF71F9C01B5
:1035C00022503109E217F30708F49DC0D901CD91CB
:1035D000DC911197C617D70798F0C530D10530F3A5
:1035E000CE0104978617970708F3C61BD70B2297BF
:1035F000C193D1936D937C93CF010E94401AD6CF93
:103600005B01AC1ABD0A4C018C0E9D1EA091610895
:10361000B0916208512C412CF12CE12C109731F51E
:1036200080915F08909160088815990509F05CC049
:103630004616570608F058C0809104019091050184
:10364000009741F48DB79EB7409108015091090150
:10365000841B950BE817F90708F055C0F093600834
:10366000E0935F08F90171836083A0CF8D919C91F5
:10367000119712966C90129713967C901397A81539
:10368000B90559F56C0142E0C40ED11CCA14DB0423
:1036900020F1AC014A195B09DA011296159780F006
:1036A0006282738251834083D9016D937C93E114CC
:1036B000F10471F0D7011396FC93EE93129776CF35
:1036C00022968C0F9D1FF90191838083F301EFCF28
:1036D000F0936208E093610869CF4816590608F430
:1036E0002C017D01D3019ACFCB010E94A4197C014A
:1036F000009749F0AE01B8010E94931BC8010E94D7
:10370000401A870153CF10E000E050CFFB01DC01ED
:1037100004C08D910190801921F441505040C8F7A8
:10372000881B990B0895FB01DC0102C001900D92EA
:1037300041505040D8F70895FB01DC014150504002
:1037400048F001900D920020C9F701C01D92415030
:103750005040E0F70895F894FFCFFFFFFFFF00000F
:1037600063088000000000004D01AE00DD009D01F7
:103770000F01EE00010100000000150EAE00510B1C
:10378000260E00000000D30EB70EA70E270E340E33
:10379000550E720E0D0A00544553542050434220DA
:1037A0004156564941544F00546573742073636801
:1037B0006564612053442C206D6F64616C6974C32F
:1037C000A02053504900534420696E697A69616CA6
:1037D000697A7A617461004572726F726520534430
:1037E00000437265617A696F6E652065206170655E
:1037F00072747572612066696C6520746573742ECD
:103800007478740046696C652061706572746F2EFF
:103810002053637269747475726120617676696190
:103820007461007365206C656767692071756573E5
:10383000746F206C61207363686564612053442059
:10384000C3A82066756E7A696F6E616E74650045F7
:1038500072726F72652066696C6500566572696682
:1038600069636120636F6E74656E75746F2066693D
:103870006C653A0046696C6520746573742E7478C3
:10388000742061706572746F2E20436F6E74656E64
:1038900075746F2066696C653A004C657474757256
:1038A0006120656666657474756174612E00457289
:1038B000726F7265206170657274757261206669DD
:1038C0006C6520746573742E747874005465737419
:1038D000204750494F00416363656E73696F6E65A1
:1038E000204C656420565F4C696D697400416363C8
:1038F000656E73696F6E65204C656420495F4C6925
:103900006D697400416363656E73696F6E65204C09
:10391000656420505F4C696D697400436F6C6C6521
:103920006761726520696C206D756C74696D657472
:10393000726F20696E206D6F64616C6974C3A02022
:10394000636F6E74696E756974C3A02073756C6C57
:1039500027696E67726573736F20646920706F7476
:10396000656E7A6100416363656E73696F6E652091
:103970004D4F534645542C207665726966696361E4
:103980007265206C612070726573656E7A61206467
:103990006920636F72746F636972637569746F20F5
:1039A00073756C6C27696E67726573736F206469D9
:1039B00020706F74656E7A6100537065676E696D13
:1039C000656E746F204D4F534645542C20766572BA
:1039D00069666963617265206C61207072657365E8
:1039E0006E7A6120646920636972637569746F20FF
:1039F00061706572746F2073756C6C27696E677285
:103A00006573736F20646920706F74656E7A6100EE
:103A1000546573742041444300436F6C6C65676167
:103A2000726520756E20616C696D656E7461746F6E
:103A30007265206C696D697461746F206120314119
:103A40002073756C6C27696E67726573736F206481
:103A50006920706F74656E7A61004C65747475725C
:103A6000612074656E73696F6E6520612076756F75
:103A7000746F2E2056203D2000206D56004C65743A
:103A80007475726120636F7272656E74652064690B
:103A900020636F72746F636972637569746F2E202F
:103AA00049203D2000206D4100506F74656E7A61A1
:103AB000206D617373696D612064656C6C27616C46
:103AC000696D656E7461746F72652050203D2000D1
:103AD000206D57005465737420636F6E636C75734B
:043AE0006F2E000045
:107800000C94343C0C94513C0C94513C0C94513CE1
:107810000C94513C0C94513C0C94513C0C94513CB4
:107820000C94513C0C94513C0C94513C0C94513CA4
:107830000C94513C0C94513C0C94513C0C94513C94
:107840000C94513C0C94513C0C94513C0C94513C84
:107850000C94513C0C94513C0C94513C0C94513C74
:107860000C94513C0C94513C11241FBECFEFD8E036
:10787000DEBFCDBF11E0A0E0B1E0ECE9FFE702C060
:1078800005900D92A230B107D9F712E0A2E0B1E065
:1078900001C01D92AD30B107E1F70E942D3D0C945F
:1078A000CC3F0C94003C982F959595959595959582
:1078B000905D8F708A307CF0282F295A8091C0000B
:1078C00085FFFCCF9093C6008091C00085FFFCCF60
:1078D0002093C6000895282F205DF0CF982F809127
:1078E000C00085FFFCCF9093C6000895EF92FF92F1
:1078F0000F931F93EE24FF2487018091C00087FD22
:1079000017C00894E11CF11C011D111D81E4E8164B
:1079100082E4F8068FE0080780E0180770F3E09132
:107920000401F091050109958091C00087FFE9CF1E
:107930008091C6001F910F91FF90EF9008950E94D3
:10794000763C982F8091C00085FFFCCF9093C600B5
:1079500091362CF490330CF09053892F089597555D
:10796000892F08951F930E949F3C182F0E949F3CCF
:107970001295107F810F1F9108951F93182F882350
:1079800021F00E94763C1150E1F71F9108951F935A
:10799000182F0E94763C803249F0809103018F5F5E
:1079A000809303018530C1F01F9108958091C0003C
:1079B00085FFFCCF84E18093C6008091C00085FFE5
:1079C000FCCF1093C6008091C00085FFFCCF80E102
:1079D0008093C6001F910895E0910401F091050184
:1079E00009951F9108950E94763C803241F0809164
:1079F00003018F5F80930301853081F008958091AA
:107A0000C00085FFFCCF84E18093C6008091C00058
:107A100085FFFCCF80E18093C6000895E0910401CA
:107A2000F09105010995089540E951E08823A1F0FE
:107A30002D9A28EE33E0FA013197F1F721503040CA
:107A4000D1F72D9828EE33E0FA013197F1F7215064
:107A50003040D1F7815061F708953F924F925F9285
:107A60006F927F928F929F92AF92BF92CF92DF924E
:107A7000EF92FF920F931F93CF93DF93000080E16B
:107A80008093C4001092C50088E18093C10086E015
:107A90008093C2005098589A259A81E00E94143D24
:107AA00024E1F22E9EE1E92E85E9D82E0FE0C02ECA
:107AB00010E1B12EAA24A394B1E49B2EA6E58A2E50
:107AC000F2E57F2EE0E26E2E79E4572E63E5462E36
:107AD00050E5352E0E94763C8033B1F18133B9F107
:107AE000803409F46FC0813409F476C0823409F41B
:107AF00085C0853409F488C0803531F1823521F1A3
:107B0000813511F1853509F485C0863509F48DC0BC
:107B1000843609F496C0843709F403C1853709F423
:107B200072C1863709F466C0809103018F5F80932C
:107B30000301853079F6E0910401F0910501099582
:107B40000E94763C803351F60E94F33CC3CF0E94E2
:107B5000763C803249F78091C00085FFFCCFF092DF
:107B6000C6008091C00085FFFCCF9092C600809136
:107B7000C00085FFFCCF8092C6008091C00085FFC9
:107B8000FCCF7092C6008091C00085FFFCCF609250
:107B9000C6008091C00085FFFCCF5092C600809146
:107BA000C00085FFFCCF4092C6008091C00085FFD9
:107BB000FCCF3092C6008091C00085FFFCCFB09210
:107BC000C60088CF0E94763C863808F4BDCF0E945C
:107BD000763C0E94F33C7ECF0E94763C803809F4CC
:107BE0009CC0813809F40BC1823809F43CC1883942
:107BF00009F48FC080E00E94C73C6CCF84E10E94F2
:107C0000BD3C0E94F33C66CF85E00E94BD3C0E94D3
:107C1000F33C60CF0E94763C809306010E94763C44
:107C2000809307010E94F33C55CF0E94763C80333D
:107C300009F41DC183E00E94BD3C80E00E94C73C66
:107C400049CF0E94763C809309020E94763C809343
:107C5000080280910C028E7F80930C020E94763C79
:107C6000853409F415C18091080290910902892B8D
:107C700089F000E010E00E94763CF801E85FFE4FDA
:107C800080830F5F1F4F80910802909109020817AF
:107C9000190788F30E94763C803209F045CF809125
:107CA0000C0280FF01C16091060170910701660F0F
:107CB000771F7093070160930601A0910802B091AD
:107CC00009021097C9F0E8E0F1E09B01AD014E0F09
:107CD0005F1FF999FECF32BD21BD819180BDFA9A17
:107CE000F99A2F5F3F4FE417F50799F76A0F7B1F4B
:107CF00070930701609306018091C00085FFFCCF5F
:107D0000F092C6008091C00085FFFCCFB092C60003
:107D1000E1CE83E00E94C73CDDCE82E00E94C73CFA
:107D2000D9CE0E94763C809309020E94763C8093D3
:107D300008028091060190910701880F991F909386
:107D40000701809306010E94763C853409F4A6C0A1
:107D500080910C028E7F80930C020E94763C8032D0
:107D600009F0B8CE8091C00085FFFCCFF092C6002C
:107D7000609108027091090261157105B9F140E046
:107D800050E080910C02A82FA170B82FB27011C0E2
:107D9000BB2309F45CC0E0910601F0910701319624
:107DA000F0930701E09306014F5F5F4F46175707B7
:107DB000E8F4AA2369F3F999FECF209106013091E6
:107DC000070132BD21BDF89A90B58091C00085FFB2
:107DD000FCCF9093C6002F5F3F4F30930701209355
:107DE00006014F5F5F4F4617570718F38091C00099
:107DF00085FDE5CE8091C00085FFF8CFE0CE81E023
:107E00000E94C73C67CE0E94763C803209F08CCE3F
:107E10008091C00085FFFCCFF092C6008091C00029
:107E200085FFFCCFE092C6008091C00085FFFCCFAB
:107E3000D092C6008091C00085FFFCCFC092C600E2
:107E40008091C00085FFFCCFB092C60043CEE09188
:107E50000601F091070194918091C00085FFFCCF4D
:107E60009093C6009CCF80E10E94C73C33CE0E9415
:107E7000763C0E94763C182F0E94763C112309F430
:107E800083C0113009F484C08FE00E94C73C22CE29
:107E900080910C02816080930C02E5CE80910C02EF
:107EA000816080930C0259CF809107018823880F4D
:107EB000880B8A2180930B02809106019091070123
:107EC000880F991F90930701809306018091080203
:107ED00080FF09C080910802909109020196909359
:107EE000090280930802F894F999FECF1127E091D6
:107EF0000601F0910701C8E0D1E08091080290915D
:107F00000902103091F40091570001700130D9F34B
:107F100003E000935700E89500915700017001308D
:107F2000D9F301E100935700E89509901990009169
:107F3000570001700130D9F301E000935700E89534
:107F40001395103498F011270091570001700130FB
:107F5000D9F305E000935700E895009157000170B0
:107F60000130D9F301E100935700E895329602976A
:107F700009F0C7CF103011F00296E5CF112480919F
:107F8000C00085FFB9CEBCCE8EE10E94C73CA2CD19
:0E7F900085E90E94C73C9ECDF894FFCF80008B
:00000001FF
