:100000000C9465000C948D000C948D000C948A1552
:100010000C948A150C948A150C948D000C949415EC
:100020000C948D000C948D000C948D000C948D001C
:100030000C948D000C948D000C948E170C948D00F4
:100040000C9440150C948D000C940F150C94E9142D
:100050000C948D000C948D000C948D000C948D00EC
:100060000C948D000C948D007C3C3E5E2B3D3F2F0C
:100070005B5D3B2C2A225C000000000800020100AE
:100080000003040700000000000000000000000062
:10009000250028002B0000000000240027002A0073
:1000A000040404040404040402020202020203031E
:1000B0000303030301020408102040800102040826
:1000C0001020010204081020091911241FBECFEFCF
:1000D000D8E0DEBFCDBF26E0A6EBB1E001C01D92A7
:1000E000AC34B207E1F711E0A0E0B1E0E2E0F3E404
:1000F00002C005900D92A63BB107D9F710E0C5E606
:10010000D0E004C02197FE010E946B1FC436D107C6
:10011000C9F70E942C1A0C947F210C940000E5EF83
:10012000F3E0A089B18982E08C93A485B5851C9207
:10013000A685B7858FEC8C93108EA489B58986E04F
:100140008C93A289B3898C9180618C93A289B389A5
:100150008C9188608C93A289B3898C9180688C93F0
:100160000288F389E02D80818F7D8083089590E05F
:10017000FC01EC54FF4F249180569F4FFC01849169
:10018000882399F090E0880F991FFC01EA56FF4FF1
:10019000A591B491FC01E457FF4F859194918FB7DD
:1001A000F894EC91E22BEC938FBF0895CF92DF92FD
:1001B000EF92FF920F931F93CF93DF934115510559
:1001C00009F16A018C017B01D0E0C0E004C02196F6
:1001D000CC16DD0669F0D7016D917D01D801ED9156
:1001E000FC910190F081E02DC8010995892B79F7E8
:1001F000CE01DF91CF911F910F91FF90EF90DF9093
:10020000CF900895D0E0C0E0F3CFFC01938D848DB2
:10021000981720F4891B990B019708952FE330E07C
:10022000291B3109820F932F911D0895FC01918D97
:10023000828D981759F0A28DAE0FBF2FB11D5D961C
:100240008C91928D9F5F928F90E008958FEF9FEF3A
:100250000895FC01918D828D981731F0828DE80F01
:10026000F11D858D90E008958FEF9FEF0895FC01BB
:10027000918D828D981B892F90E0089585EF93E0F2
:100280000E94370121E0892B09F420E0822F089594
:1002900080E090E0892B21F00E943E01811101C095
:1002A00008950C940000FC01A48DA80FB92FB11D76
:1002B000A35EBE4F2C91848D90E001968F73992799
:1002C000848FA689B7892C93A089B1898C9183707A
:1002D00080648C93938D848D981308950288F3899C
:1002E000E02D80818F7D80830895EF92FF920F93A0
:1002F0001F93CF93DF93EC0181E0888F9B8D8C8DD2
:10030000981799F1062FEB8CF12C8FEFE81AF80A69
:100310008FE3E822FF241E2D03C00FB607FE1CC08A
:100320008C8D8117D1F3EB8DEC0FFD2FF11DE35E6A
:10033000FE4F00839FB7F894EB8EEA89FB8980819A
:10034000806280839FBF81E090E0DF91CF911F9119
:100350000F91FF90EF900895E889F989808185FFDA
:10036000DFCFCE010E945301DBCFE889F98980817C
:1003700085FFC8CF9FB7F894EE89FF896083E8892D
:10038000F989808183708064DCCFCF93DF93EC01A7
:10039000888D8823B9F0EA89FB89A889B989808189
:1003A00085FD03C08C9186FD0DC00FB607FCF7CF0D
:1003B000808185FFF4CF8C9185FFF1CFCE010E9423
:1003C0005301E9CFDF91CF91089590E0FC01E85807
:1003D000FF4F2491FC01EC54FF4F349180569F4F06
:1003E000FC018491882391F0211116C0E82FF0E0E0
:1003F000EE0FFF1FE457FF4FA591B4918FB7F8940C
:10040000662329F0EC91E32BEC938FBF08959C9128
:10041000E32FE095E923F8CF233019F160F027307E
:10042000E1F02830A1F0243009F7909180009F7D01
:1004300090938000DBCF213031F02230B9F694B5B3
:100440009F7D94BDD3CF94B59F7794BDCFCF90912E
:10045000B0009F7D9093B000C9CF9091B0009F777E
:10046000F9CF909180009F77E3CF2FB7F8946091F8
:10047000D4017091D5018091D6019091D7012FBF01
:1004800008958F929F92AF92BF92EF92FF920F9337
:100490001F93CF93DF937B018C01D0E0C0E00E94DB
:1004A00035026093FD037093FE038093FF039093E6
:1004B00000041BC00E9435028090FD039090FE0353
:1004C000A090FF03B0900004681979098A099B097C
:1004D0008090F9039090FA03A090FB03B090FC0386
:1004E000681579058A059B0568F485EF93E00E94FD
:1004F000160197FDDFCFF80181938F012196EC164D
:10050000FD0669F6CE01DF91CF911F910F91FF900B
:10051000EF90BF90AF909F908F900895CF93DF930F
:1005200000D000D0CDB7DEB719821A821B821C82A0
:1005300084E690E0A0E0B0E08093F9039093FA03A2
:10054000A093FB03B093FC0364E070E0CE0101963E
:100550000E9441028981813041F080E00F900F902C
:100560000F900F90DF91CF9108958A818F3FA9F767
:100570008B818F3F91F781E09C819F3F71F7EECF98
:10058000FF920F931F93CF93DF938C010E9435024C
:10059000EB01FF24FA94FEBC00000DB407FEFDCF72
:1005A0008EB58F3F71F00E9435026C1B7D0B60177A
:1005B000710788F380E0DF91CF911F910F91FF9039
:1005C000089581E0DF91CF911F910F91FF900895E1
:1005D0002091CB01211109C021E02093CB01309162
:1005E0005205209153053CBD2DBD60E0FC01848186
:1005F0000C94E50161E0FC0184810E94E501809199
:10060000CB0181111092CB010895CF93DF93EC01C0
:100610008F8198859C012F5F3F4F38872F838230D1
:10062000924088F44FEF4EBD00000DB407FEFDCFA1
:100630008EB58F8198859C012F5F3F4F38872F8320
:100640008230924080F3CE010E94FA021E82DF9136
:10065000CF910895CF92DF92EF92FF921F93CF93A5
:10066000DF93EC01162F69017A018E81882319F03E
:10067000CE010E940503CE010E94E8028CE291E0C7
:100680000E94C002812F80648EBD00000DB407FE61
:10069000FDCF8EB588E190E0B701A601082E04C019
:1006A00076956795579547950A94D2F74EBD000009
:1006B0000DB407FEFDCF2EB50897883F2FEF9207A8
:1006C00059F785E9112319F087E81830E9F48EBD50
:1006D00000000DB407FEFDCF8EB590E02FEF2EBDCC
:1006E00000000DB407FEFDCF8EB58A8787FF04C0DA
:1006F0009F3F11F09F5FF3CFDF91CF911F91FF904C
:10070000EF90DF90CF9008958FEFE1CF9F92AF925F
:10071000BF92CF92DF92EF92FF920F931F93CF93EE
:10072000DF93EC016901C801820F931F8130924071
:10073000E0F48E81811129C0488359836A837B83C9
:100740008B85833039F089E0440F551F661F771F72
:100750008A95D1F79A01AB0161E1CE010E942A038B
:10076000882309F452C083E08D83CE010E94FA02EF
:1007700080E0DF91CF911F910F91FF90EF90DF907C
:10078000CF90BF90AF909F90089588819981AA8162
:10079000BB8184179507A607B70771F68F819885E7
:1007A000C816D90648F22FEF8C159D0570F42EBDA2
:1007B00000000DB407FEFDCF8EB58F8198850196A0
:1007C00098878F838C159D0590F3F7019701200F73
:1007D000311F9FEF9EBD00000DB407FEFDCF8EB50B
:1007E0008193E217F307B1F78F819885080F191FDE
:1007F00018870F838985882319F00115124018F096
:100800008E81811128C081E0B4CF0E9435025B0146
:1008100099249A949EBC00000DB407FEFDCF8EB5BE
:100820008A878F3F69F40E9435026A197B096D320D
:10083000714080F38FE08D83CE010E94FA0295CF44
:100840008E3F11F08DE0F7CF18861F8281E08E83F6
:1008500090E080E0A8CFCE010E94050381E089CF1F
:10086000FF920F931F93CF93DF93EC01F22E132F80
:1008700082E1411551056105710599F08B85833041
:1008800039F089E0440F551F661F771F8A95D1F70D
:100890009A01AB0168E1CE010E942A03882361F02E
:1008A00084E08D83CE010E94FA0280E0DF91CF9137
:1008B0001F910F91FF9008958EEF8EBD00000DB433
:1008C00007FEFDCF8EB5EF2DF12F9F013E5F819189
:1008D0008EBD00000DB407FEFDCF8EB52E173F076D
:1008E000B1F78FEF8EBD00000DB407FEFDCF8EB5C2
:1008F0008FEF8EBD00000DB407FEFDCF8EB58FEFDC
:100900008EBD00000DB407FEFDCF8EB58A878F71B6
:10091000853031F081E18D83CE010E94FA02C2CF91
:100920000023D1F088E592E00E94C002811102C04C
:1009300085E1B7CF20E030E0A9016DE0CE010E9453
:100940002A0381110EC08FEF8EBD00000DB407FE8B
:10095000FDCF8EB5811105C0CE010E94FA0281E063
:10096000A5CF84E19ECF0F934091CC015091CD0152
:100970006091CE017091CF0141155105610571055E
:1009800019F481E00F910895082F23EF31E0809151
:10099000F3039091F4030E943004882399F310929A
:1009A000CC011092CD011092CE011092CF01E9CF6F
:1009B0000F93CF939091D001911104C081E0CF911A
:1009C0000F910895C82F40910A0150910B01609139
:1009D0000C0170910D01082F23EF31E08091F3039A
:1009E0009091F4030E943004882359F0CC2331F312
:1009F00081E00E94B304882321F01092D0018C2F53
:100A0000DECF80E0CF910F9108958F929F92AF92A9
:100A1000BF92EF92FF920F931F93CF934B015C0114
:100A2000C42F80910A0190910B01A0910C01B0910B
:100A30000D0188159905AA05BB0581F44091D001E7
:100A40004C2B4093D00181E0CF911F910F91FF90EB
:100A5000EF90BF90AF909F908F90089581E00E949B
:100A6000D804811102C080E0EFCF83EFE82E81E04F
:100A7000F82E00E012E030E020E0B501A401809102
:100A8000F3039091F4030E948603882361F380921C
:100A90000A0190920B01A0920C01B0920D01CECFF1
:100AA0008F929F92AF92BF92CF92DF92EF92FF927E
:100AB000CF93DF9324E535E03093F4032093F303E1
:100AC000882391F140E060E070E0CB010E940505D1
:100AD0008823F1F08091B1038F77D1F48091BD0329
:100AE0009091BE03A091BF03B091C00384369105DD
:100AF000A105B10568F0C090B903D090BA03E090A9
:100B0000BB03F090BC03C114D104E104F10479F4F7
:100B100080E0DF91CF91FF90EF90DF90CF90BF907A
:100B2000AF909F908F900895C12CD12C760140E01A
:100B3000C701B6010E940505882351F38091FE018B
:100B40009091FF018115924019F7A0910302AA2309
:100B5000F9F2C0910102D09102022097C9F24091AE
:100B600000024423A9F2A09372054093640590E02B
:100B700080E050E061E070E007C021E0280F0196BE
:100B80008930910509F4B6C0E82F9B01082E02C0F8
:100B9000220F331F0A94E2F74217530771F780932D
:100BA0006D052091090230910A0250E040E02115C4
:100BB000310541F420911702309118024091190239
:100BC00050911A022093650530936605409367059E
:100BD00050936805460157018C0E9D1EA11CB11C47
:100BE0008092730590927405A0927505B092760577
:100BF000C0910402D0910502D0937905C093780585
:100C0000B0E00E94691E860E971EA81EB91E809233
:100C10007A0590927B05A0927C05B0927D05CE016D
:100C2000880F991F82959295907F9827807F9827AB
:100C300081509E4F892F99278695A5019401280FF1
:100C4000391F411D511DDA01C90180936E05909332
:100C50006F05A0937005B093710540910602509105
:100C6000070270E060E04115510541F44091130224
:100C7000509114026091150270911602C81AD90A97
:100C8000EA0AFB0AC40ED51EE61EF71E04C0F6943F
:100C9000E794D794C794EA95D2F7C0926905D092A9
:100CA0006A05E0926B05F0926C058CE035EFC31697
:100CB0003FE0D306E104F104C8F080E145EFC4163B
:100CC0004FEFD406E104F10488F080911F02909167
:100CD0002002A0912102B091220280937A05909384
:100CE0007B05A0937C05B0937D0580E2809377051A
:100CF00081E00FCF20936D050BCF4F925F926F92E3
:100D00007F928F929F92AF92BF92CF92DF92EF929B
:100D1000FF920F931F93CF93DF93EC016A017B0146
:100D2000280139018B889C88AD88BE8880910A0192
:100D300090910B01A0910C01B0910D012F892031F0
:100D400009F44BC027E076956795579547952A9506
:100D5000D1F7840E951EA61EB71E88159905AA0503
:100D6000BB0509F047C0E894C7F8DD24EE24FF2452
:100D7000F601EE0FFF1FEE0FFF1FED50FE4F4082FA
:100D80005182628273828091D00181608093D00110
:100D90008A89823080F08D819E81AF81B885880DEF
:100DA000991DAA1DBB1D8093CC019093CD01A093EA
:100DB000CE01B093CF0181E0DF91CF911F910F91D0
:100DC000FF90EF90DF90CF90BF90AF909F908F906B
:100DD0007F906F905F904F90089577276F2D5E2DD5
:100DE0004D2D840E951EA61EB71E88169906AA06BE
:100DF000BB0659F040E0C501B4010E9405058823F7
:100E0000D9F28F89803109F0AECFDD24EE24FF24A2
:100E1000F601EE0FFF1FED50FE4F51824082B3CF1F
:100E20004F925F926F927F928F929F92AF92BF92FA
:100E3000CF92DF92EF92FF920F931F93CF93DF93A6
:100E4000E901FC0101851285238534850F5F1F4F61
:100E50002F4F3F4F041715072607370708F453C0D5
:100E60006A017B018C01FC0183899489A589B6897B
:100E700080900A0190900B01A0900C01B0900D01A0
:100E80002789203161F12A013B0127E0769467949C
:100E9000579447942A95D1F7BC01CD01640D751D77
:100EA000861D971D86169706A806B90639F5B7015F
:100EB000A6014F77552766277727440F551F440F04
:100EC000551F4D505E4FFA0180819181A281B381FF
:100ED000BF7088839983AA83BB8381E015C04D2CA2
:100EE0005E2C6F2C7724BC01CD01640D751D861D11
:100EF000971D681579058A059B05E1F040E00E9481
:100F00000505811112C080E0DF91CF911F910F91F3
:100F1000FF90EF90DF90CF90BF90AF909F908F9019
:100F20007F906F905F904F900895F801878980318E
:100F300009F0BDCFB701A601552766277727440FD3
:100F4000551F4D505E4FFA0180819181B0E0A0E0C5
:100F5000C0CF2F923F924F925F926F927F928F926B
:100F60009F92AF92BF92CF92DF92EF92FF920F9338
:100F70001F93CF93DF9300D000D01F92CDB7DEB781
:100F80006C013B01FC012581222309F4A5C0848169
:100F900080FFA2C0438954896589768982859385BB
:100FA000A485B585481759076A077B0709F4AEC0C1
:100FB000F1E0F9831A8288248394912C160106E0CB
:100FC000200E311C412C52E0552E5C0111E0B12263
:100FD000F601038D148DAC01BD0139E0769567955E
:100FE000579547953A95D1F7F801223009F4C5C0D5
:100FF000F480FA94F422F601A114B10409F0B8C007
:10100000F110B6C0892B8A2B8B2B09F0A3C08789DE
:10101000908DA18DB28D86839783A087B187BC0107
:10102000CD016250710981099109F801258504C03B
:10103000660F771F881F991F2A95D2F70685178597
:10104000208931890F0D111D211D311D600F711F68
:10105000821F931F82010A191B091D830C838016AE
:10106000910610F49D828C82F601248126FD53C0E6
:101070000C811D810115124009F44DC040E00E9411
:101080000505882349F195012D503E4F8C819D81A6
:10109000820F931F2817390759F0F901D3014191A5
:1010A0004D938E179F07D9F7821B930B680E791EFD
:1010B000F60182859385A485B5850C811D81800FFD
:1010C000911FA11DB11D82879387A487B587801AC0
:1010D000910AF1F0258179CF8FEF9FEF0F900F905C
:1010E0000F900F900F90DF91CF911F910F91FF9074
:1010F000EF90DF90CF90BF90AF909F908F907F90B8
:101100006F905F904F903F902F90089519821A82B0
:1011100089819A81E3CF00910A0110910B012091FE
:101120000C0130910D01601771078207930709F4D4
:10113000A5CF73010C811D819501AB01BC0180918C
:10114000F3039091F4030E948603882329F28C8193
:101150009D81ACCF46815781608571859101C80121
:101160000E941007882309F4B7CFF601038D148D70
:1011700086819781A085B18552CF828D938DA48D74
:10118000B58D8A019B01080F191F2A1F3B1FC9013A
:10119000B80160CF4F925F926F927F92AF92BF92F1
:1011A000CF92DF92EF92FF920F931F93CF93DF9333
:1011B00000D000D0CDB7DEB78C0149835A836B8352
:1011C0007C835901C12CD12C7601412C82E0582E10
:1011D000612C712C09C088EF9FEFAFEFBFE048177B
:1011E00059076A077B0748F59E012F5F3F4FC801EB
:1011F0000E941007882339F1F8018585A301920127
:1012000004C0220F331F441F551F8A95D2F7DA01FD
:10121000C901C80ED91EEA1EFB1E49815A816B8185
:101220007C8187898031B9F688EF9FEFA0E0B0E03C
:10123000481759076A077B07B8F2F501C082D182C7
:10124000E282F38281E00F900F900F900F90DF9178
:10125000CF911F910F91FF90EF90DF90CF90BF90B3
:10126000AF907F906F905F904F900895CF93DF93F2
:10127000FC012581211107C0EC01809177058031A7
:1012800031F08032F1F180E0DF91CF91089582E07A
:101290008583178A108E118E128E80917805909119
:1012A0007905B0E0A0E0880F991FAA1FBB1F880F27
:1012B000991FAA1FBB1F880F991FAA1FBB1F880F4A
:1012C000991FAA1FBB1F880F991FAA1FBB1F838BC3
:1012D000948BA58BB68B80E695E09C8F8B8F81E0FD
:1012E0008C831E821F82188619861A861B861C868E
:1012F0001D861E861F86188A198A1A8ADF91CF9149
:10130000089583E0858340917A0550917B05609133
:101310007C0570917D05478B508F618F728F9F0187
:101320002D5E3F4F80E695E00E94CA088111D3CF21
:10133000AACF8F929F92AF92BF92CF92DF92EF92FD
:10134000FF920F931F93CF93DF93FC0125812223FC
:1013500009F46DC0C388D488E588F688C416D5061C
:10136000E606F70608F463C04A015B01EC0122308F
:1013700009F457C081149104A104B10409F465C0B3
:101380000285138524853585038CF48DE02D8585B4
:1013900090E00996B901A80141505109610971090C
:1013A000082E04C076956795579547950A94D2F70D
:1013B00075016401F1E0CF1AD108E108F10804C019
:1013C000F694E794D794C7948A95D2F7C416D506B5
:1013D000E606F70628F0012B022B032B09F03FC08D
:1013E0008F89988DA98DBA8D8E839F83A887B987A1
:1013F0008E010A5F1F4F10C04E815F81688579851D
:1014000098018B8D9C8D0E94100791E0C91AD1081C
:10141000E108F108882359F0C114D104E104F10472
:1014200059F78A869B86AC86BD8681E001C080E044
:10143000DF91CF911F910F91FF90EF90DF90CF90B0
:10144000BF90AF909F908F9008951682178210865C
:101450001186128613861486158681E0E9CFC41A98
:10146000D50AE60AF70AC4CF2F923F924F925F92B5
:101470006F927F928F929F92AF92BF92CF92DF92A4
:10148000EF92FF920F931F93CF93DF93CDB7DEB709
:101490002B970FB6F894DEBF0FBECDBFDC015B9675
:1014A0002D903C905C971696CD90DD90ED90FC9041
:1014B0001997C114D104E104F10409F498C0BFEFF5
:1014C000CB1ADB0AEB0AFB0A1B86D10119964D9158
:1014D0005D916D917C911C978A019B010F5F1F4F5D
:1014E0002F4F3F4F0D831E832F833887452B462B6D
:1014F000472B09F462C09A87898726013701812C1E
:10150000912C540117C09FEFC91AD90AE90AF90AA8
:1015100026013701BFEF8B1A9B0AAB0ABB0AF10108
:1015200081859285A385B48588169906AA06BB068F
:1015300008F043C08D819E81AF81B8858C159D05D3
:10154000AE05BF0550F482E0C82ED12CE12CF12C61
:1015500092E0492E512C612C712C9E012F5F3F4F40
:10156000B701A601C1010E941007882331F18981CA
:101570009A81AB81BC81892B8A2B8B2B21F6C414D9
:10158000D504E604F70431F0AFEFCA1ADA0AEA0A22
:10159000FA0AC0CFF2E0CF16D104E104F10468F0FA
:1015A000F10181859285A385B4850196A11DB11DA8
:1015B0008C159D05AE05BF0510F580E02B960FB686
:1015C000F894DEBF0FBECDBFDF91CF911F910F9179
:1015D000FF90EF90DF90CF90BF90AF909F908F9053
:1015E0007F906F905F904F903F902F900895F10102
:1015F000C080D180E280F380F1E0FB8766CF0FEFFF
:101600001FEF2FEF3FE0B701A601C1010E947D0649
:10161000882399F2E985FA8546815781608571852D
:101620004115510561057105D9F04230510561053B
:10163000710518F2F10181859285A385B485019623
:10164000A11DB11D84179507A607B70708F4B5CFEC
:1016500097018601C1010E947D06882309F4ADCF60
:10166000A985BA851696CD92DD92ED92FC921997D6
:10167000BB85BB2351F0D701C6010196A11DB11D49
:10168000F10180839183A283B383A985BA851496DF
:101690008C91149757964D915D916D917C915A97CD
:1016A000452B462B472B31F4FD01C78AD08EE18EA6
:1016B000F28E80688062A985BA8514968C9381E049
:1016C0007DCF1F93CF93DF93EC01162F8C8187FD85
:1016D0000AC0111102C08F7E8C83812FDF91CF91C0
:1016E0001F910C94D8046E857F858889998941E083
:1016F0000E940505882311F1EA8980E2E89FF00144
:101700001124ED50FE4F3097C9F08D81823040F4A6
:101710008B899C89AD89BE89848F958FA68FB78F61
:101720008F89988D938F828F8F89988DA98DBA8D8F
:10173000B58BA48B8C818F778C83CBCF80E0DF91AE
:10174000CF911F910895FF920F931F93CF93DF9333
:10175000FC012581213041F090E080E0DF91CF91C4
:101760001F910F91FF900895248121FFF5CFEC0187
:1017700022FF12C0438954896589768982859385C1
:10178000A485B58584179507A607B70729F0CF016B
:101790000E949909882301F30091F3031091F40347
:1017A000C8010E94E8028FEF8EBD00000DB407FE55
:1017B000FDCFFEB4C8010E94FA02FFEFFF12CCCFAA
:1017C0008C8185FF0BC09D81992329F060E0CE01BB
:1017D0000E94610B8C818F7D8C83BECF4091CC01A8
:1017E0005091CD016091CE017091CF01452B462BD8
:1017F000472B51F480618C832A853B85317080E0D2
:1018000092E0821B930BAACF80E00E94B304A4CF86
:10181000CF93DF93FC012581211104C080E0DF918B
:10182000CF910895EC0161E00E94610B8823B1F330
:101830001D8281E0DF91CF9108952F923F924F92C8
:101840005F926F927F928F929F92AF92BF92CF9250
:10185000DF92EF92FF920F931F93CF93DF93CDB759
:10186000DEB72D970FB6F894DEBF0FBECDBF7C015B
:101870004B015A874987DC0115968C911597813069
:1018800001F181E090E0F7019383828380E090E0B2
:101890002D960FB6F894DEBF0FBECDBFDF91CF916E
:1018A0001F910F91FF90EF90DF90CF90BF90AF907E
:1018B0009F908F907F906F905F904F903F902F9070
:1018C000089514961C91149711FFDBCF1A968D91F1
:1018D0009D910D90BC91A02DAC01BD0112FF2FC0B8
:1018E000F7014388548865887688481659066A0641
:1018F0007B06B1F449845A84452831F513FF0DC0A5
:10190000D70115968C91882309F4BBCF61E0C701FC
:101910000E94610B882309F4B4CF89859A85B8CFDA
:10192000B301A201C7010E949909882309F4A9CF34
:10193000F70182859385A485B585AC01BD014984F5
:101940005A84452809F4AAC0A984BA8412951F7044
:10195000109511701B87212CE2E03E2EF701038CBD
:10196000F48DE02DFD87EC87248121502A013B0175
:1019700039E076946794579447943A95D1F72421A7
:101980008A011170F70146815781608571852111A7
:101990009DC00115110509F0FFC0411551056105F4
:1019A000710509F02EC14788508C618C728C4114EE
:1019B00051046104710409F459C1D70116964D927E
:1019C0005D926D927C921997F2E04F1A510861086E
:1019D0007108AC85BD851D968C911D9704C0440C83
:1019E000551C661C771C8A95D2F71E964D915D9109
:1019F0006D917C915197440E551E661E771EA11461
:101A0000B2E0BB0608F093C06501F70182859385BB
:101A1000A485B585F701438954896589768984173A
:101A20009507A607B70708F0D8C041E0C301B20187
:101A30000E940505882309F424CF0D501E4F9801FC
:101A40002C0D3D1DA60170E060E00217130789F020
:101A5000D401F8018D9181932E173F07D9F70F5FBD
:101A60001F4F81E090E0801B910B820F931F880E27
:101A7000991EAC18BD08F70182859385A485B585AC
:101A8000480F591F6A1F7B1FDB01CA01428753871A
:101A900064877587A114B10409F060CFD70114964B
:101AA0001C91149753968D919D910D90BC91A02DF2
:101AB00084179507A607B70708F020CFF701438BD7
:101AC000548B658B768B1068148318CF6101C01A14
:101AD000D10AEC85FD854684578460887188420E62
:101AE000511C611C711C4D825E826F8278862A01B6
:101AF0003B01F2E04F1A510861087108EC85FD8541
:101B0000258504C0440C551C661C771C2A95D2F709
:101B10002D813E814F815885420E531E641E751ED5
:101B2000AC14BD0498F1C11432E0D30681F5809164
:101B30000A0190910B01A0910C01B0910D01481682
:101B400059066A067B0659F48FEF9FEFDC018093FC
:101B50000A0190930B01A0930C01B0930D010B852A
:101B60009401B301A2018091F3039091F4030E94C8
:101B70003004882309F485CE9EEF991A40E052E0A4
:101B800060E070E0C12C82E0D82E73CF65010115B2
:101B9000110509F43FCF49CF6101C01AD10A2A01CA
:101BA0003B0122E0421A510861087108EC85FD856D
:101BB000258504C0440C551C661C771C2A95D2F759
:101BC0004685578560897189440E551E661E771EAD
:101BD000AC14BD04E0F6650128CF81E00E94D80472
:101BE000882309F44ECE40920A0150920B01609274
:101BF0000C0170920D018091D00181608093D00121
:101C00001CCF9E012F5F3F4F8C859D850E94100742
:101C1000882309F43CCEF701038CF48DE02DFD8779
:101C2000EC8749805A806B807C808789803109F4F9
:101C300049C088EF9FEFAFEFBFE0481659066A062C
:101C40007B0608F4BACEC7010E94340A882309F43F
:101C500018CED7015B960D90BC91A02DBD87AC87A7
:101C6000F7014680578060847184AECEC7010E9420
:101C7000340A882309F405CED7015B96ED91FC91D7
:101C80005C9716964D905D906D907C901997B2E0A0
:101C90004B1A510861087108858504C0440C551C15
:101CA000661C771C8A95D2F74685578560897189AD
:101CB000440E551E661E771EA114E2E0BE0608F013
:101CC00036CFA2CE88EF9FEFA0E0B0E0B6CFCF93A3
:101CD000DF931F92CDB7DEB7698341E050E0BE01CC
:101CE0006F5F7F4F0E941D0C0F90DF91CF91089581
:101CF0000895FC01818D928D009739F0FC012581BA
:101D0000222319F061E00C94610B0895DC015996CF
:101D1000ED91FC913097C1F083899489A589B689AA
:101D20004285538564857585841B950BA60BB70B7F
:101D3000811520E89207A105B10508F408958FEFF9
:101D40009FE7A0E0B0E0089590E080E00895CF9391
:101D5000DF931F92CDB7DEB7FC01818D928D009786
:101D600039F0BE016F5F7F4F0E94A907019731F0E4
:101D70008FEF9FEF0F90DF91CF910895898190E0D1
:101D80000F90DF91CF910895EF92FF920F931F93E1
:101D9000CF93DF931F92CDB7DEB7FC01818D928D7B
:101DA000F12CE12C0097C1F08F01BE016F5F7F4FD6
:101DB0000E94A9070197C9F4E980F12CF801818DEF
:101DC000928DFC014285538564857585415051098A
:101DD000610971090E949909C7010F90DF91CF91A4
:101DE0001F910F91FF90EF900895EE24EA94FE2C3E
:101DF000F3CFDC0159968D919C91009739F0DC016D
:101E0000ED91FC910480F581E02D099490E080E053
:101E10000895CF93DF93EC01E98DFA8D309761F04F
:101E200013821282898D9A8D0E941D0CE98DFA8D84
:101E300022813381232B31F081E090E09B838A83E0
:101E400090E080E0DF91CF910895CF93DF931F92D0
:101E5000CDB7DEB76983DC01ED91FC910280F3819F
:101E6000E02D41E050E0BE016F5F7F4F09950F907C
:101E7000DF91CF910895CF93DF93EC0104C085EFFC
:101E800093E00E94160185EF93E00E943701892BB1
:101E9000B1F7209769F0FE0101900020E9F7319732
:101EA000AF014C1B5D0BBE0185EF93E00E94D60095
:101EB0006FEF85EF93E00E9475016FEF85EF93E080
:101EC0000E9475016FEF85EF93E0DF91CF910C9445
:101ED0007501FC0180819181009711F00C940D2017
:101EE00008950F931F93CF93DF93EC01888199811D
:101EF000009729F02A813B812617370788F48B0148
:101F00006F5F7F4F0E949620009781F099838883AE
:101F10001B830A832C813D81232B11F4FC01108249
:101F200081E0DF91CF911F910F91089580E0DF91C3
:101F3000CF911F910F910895EF92FF920F931F93EE
:101F4000CF93DF938C017B01EB0109900020E9F72F
:101F50002197C61BD70BBE010E94710FF80181119A
:101F600014C080819181009711F00E940D20F8012A
:101F7000118210821582148213821282DF91CF9116
:101F80001F910F91FF90EF900895D583C483B701FF
:101F900080819181DF91CF911F910F91FF90EF9000
:101FA0000C946921EF92FF920F931F93CF93DF93CD
:101FB0006115710581F0FB0101900020E9F731976F
:101FC000E61BF70B81F481E0DF91CF911F910F9118
:101FD000FF90EF90089580E0DF91CF911F910F91D6
:101FE000FF90EF9008958B017C01DC011496CD9158
:101FF000DC91CE0FDF1FBE010E94710F882359F3C1
:10200000F7012081318184819581B801820F931F6E
:102010000E946921D7011596DC93CE93149781E035
:10202000D3CFEF92FF920F931F93CF93DF9300D004
:1020300000D000D0CDB7DEB77C018B011A821982A7
:102040001C821B821E821D8263EB71E0CE01019611
:102050000E949C0FF70162817381CE0101960E945C
:10206000D20F64E471E0CE0101960E94D20FB80154
:10207000CE0101960E94D20F69E471E0CE01019673
:102080000E94D20F89819A810E943B0F0E948E028A
:10209000182FCE0101960E94690F812F26960FB648
:1020A000F894DEBF0FBECDBFDF91CF911F910F918E
:1020B000FF90EF9008956BE471E08DE995E00E9448
:1020C00011101092CA011092BE011092BF0110921D
:1020D000C0011092C1011092C2011092C30110926E
:1020E000C4011092C5011092C6011092C70110924E
:1020F000C8011092C90110928B0010928A000895B5
:10210000EF92FF920F931F93CF93DF93CDB7DEB77C
:102110002E970FB6F894DEBF0FBECDBF7C018B01AA
:102120001A8619861C861B861E861D8666E571E04A
:10213000CE0109960E949C0FF70162817381CE0146
:1021400009960E94D20F6BE571E0CE0109960E94BC
:10215000D20F89859A850E943B0FCE01019628E017
:10216000FC0111922A95E9F744E650E060E070E046
:102170004093F9035093FA036093FB037093FC03BD
:1021800068E070E00E944102089799F010E0CE01EB
:1021900009960E94690F812F2E960FB6F894DEBF24
:1021A0000FBECDBFDF91CF911F910F91FF90EF90A8
:1021B00008958981813751F78E818F3F39F78F815B
:1021C0008F3F21F788858F3F09F72D818C8190E023
:1021D000B0E0A0E0DC0199278827B22B2A81822B6E
:1021E0004B8150E0542F4427052E000C660B770BD3
:1021F000842B952BA62BB72BF80180839183A28388
:10220000B38311E0C4CF60E671E08DE995E00E94F0
:10221000111081E08093CA016EEB71E085EE95E0CC
:102220000E94801062EC71E08DEC95E00E948010BD
:1022300066EC71E085EB95E00E9480108BB18F71A8
:102240008BB910928B0010928A0008950F931F9300
:10225000CF93DF93CDB7DEB72E970FB6F894DEBFDE
:102260000FBECDBF8E010F5F1F4F8AE0F8011192A4
:102270008A95E9F71B861C861D861E86BE01655F52
:102280007F4F85EE95E00E9480106B857C858D8563
:102290009E850E946E1D20E030E04AE754E40E94D3
:1022A000BA1E0E942C1FCB014AE0B8010E94441DB7
:1022B000B80189ED95E00E9411108091CA01811149
:1022C00013C01092BE011092BF011092C001109273
:1022D000C1012E960FB6F894DEBF0FBECDBFDF91C1
:1022E000CF911F910F9108958B859C85AD85BE85FB
:1022F0008093BE019093BF01A093C001B093C10130
:10230000E8CF0F931F93CF93DF93CDB7DEB72E9710
:102310000FB6F894DEBF0FBECDBF8E010F5F1F4F0B
:102320008AE0F80111928A95E9F71B861C861D86C2
:102330001E86BE01655F7F4F8DEC95E00E94801088
:102340006B857C858D859E850E946E1D20E030E02A
:102350004AE754E40E94BA1E0E942C1FCB014AE0B7
:10236000B8010E94441DB80181EC95E00E94111053
:102370008091CA01811113C01092C2011092C30151
:102380001092C4011092C5012E960FB6F894DEBFCC
:102390000FBECDBFDF91CF911F910F9108958B8517
:1023A0009C85AD85BE858093C2019093C301A093A7
:1023B000C401B093C501E8CF0F931F93CF93DF9370
:1023C000CDB7DEB72E970FB6F894DEBF0FBECDBFE8
:1023D0008E010F5F1F4F8AE0F80111928A95E9F78D
:1023E0001B861C861D861E86BE01655F7F4F85EBA2
:1023F00095E00E9480106B857C858D859E850E946E
:102400006E1D20E030E04AE754E40E94BA1E0E94AC
:102410002C1FCB014AE0B8010E94441DB80189EA93
:1024200095E00E9411108091CA01811113C0109291
:10243000C6011092C7011092C8011092C9012E96D0
:102440000FB6F894DEBF0FBECDBFDF91CF911F91C5
:102450000F9108958B859C85AD85BE858093C601BF
:102460009093C701A093C801B093C901E8CFCF9260
:10247000DF92EF92FF920F931F93CF93DF93CDB72D
:10248000DEB72D970FB6F894DEBF0FBECDBF6C013F
:10249000CB01BA012AE0AE014F5F5F4F7A010E9483
:1024A000221DF70101900020E9F73197EE19FF098D
:1024B00081F481E02D960FB6F894DEBF0FBECDBF3C
:1024C000DF91CF911F910F91FF90EF90DF90CF9010
:1024D0000895D60114960D911C910E0F1F1FB8017F
:1024E000C6010E94710F882329F3F60120813181F2
:1024F00084819581B701820F931F0E946921D601C3
:1025000015961C930E931497D4CF1F93CF93DF93FC
:10251000EC0180E2689FF0011124ED50FE4F93859D
:10252000917121F0842F827409F043C0142F6A8BBB
:1025300080910A0190910B01A0910C01B0910D01C5
:102540008E879F87A88BB98B4489558970E060E09E
:10255000BA01552744274F8B588F698F7A8F828D08
:10256000938DB0E0A0E0842B952BA62BB72B8F8BFF
:10257000988FA98FBA8F23852871C9F4848D958D82
:10258000A68DB78D8B8B9C8BAD8BBE8B81E08D83A5
:102590001F701C831E821F82188619861A861B864E
:1025A0001C861D8681E0DF91CF911F910895203117
:1025B00029F080E0DF91CF911F9108959E012D5E5B
:1025C0003F4FAC01BD018B8D9C8D0E94CA088823B2
:1025D00081F384E0DCCF4F925F926F927F928F9273
:1025E0009F92AF92BF92CF92DF92EF92FF920F93A2
:1025F0001F93CF93DF93CDB7DEB72C970FB6F89428
:10260000DEBF0FBECDBF6C01FE0131967E018CE0B6
:10261000E80EF11C80E28193EE16FF06E1F7DA0185
:1026200080E047E03D91732E332361F03E3209F0A4
:1026300095C04A3009F479C088E04AE03D91732E94
:102640003111F4CF8981803209F46FC0622E8B0181
:10265000DB015B968D919C915C97F601948F838F43
:1026600016961D921D921D921C921997FB011286BF
:10267000138614861586412C812C912C5401F80167
:1026800083899489A589B68988169906AA06BB0606
:1026900008F0A1C095E0B694A794979487949A9572
:1026A000D1F7F82DFF705F2ED80115968C918230EE
:1026B000E0F1B701C8010E94A9070197B9F5F80137
:1026C00082849384A484B584FFE18F0E911CA11CA5
:1026D000B11CD8011A968D929D92AD92BC921D9715
:1026E000B0E25B9EF0011124ED50FE4F3097E9F00F
:1026F0008081882309F451C0853E09F469C04BE00C
:1027000050E0BF01CE0101960E945321892B09F0B0
:10271000B6CF462D652DC6010E948512782E06C0C3
:10272000862D8271823109F408C1712C872D2C9677
:102730000FB6F894DEBF0FBECDBFDF91CF911F91D2
:102740000F91FF90EF90DF90CF90BF90AF909F9050
:102750008F907F906F905F904F900895E8E6F0E043
:1027600003C03196391709F394919111FACF4817A4
:10277000E0F29FED930F9E35C0F69FE9930F9A31DB
:1027800018F450EE752E730EE1E0F0E0EC0FFD1F33
:10279000E80FF11D70828F5F45CF4110C1CFD60188
:1027A00052965C92529740910A0150910B016091B0
:1027B0000C0170910D011E964D935D936D937C936A
:1027C00051978081882309F4ABCF4424439457CF99
:1027D0004110FBCFE4CF862D8271823109F0A5CF65
:1027E0004110ABC08581823009F49FCFC8010E949F
:1027F000340A882309F499CFD8015B96ED91FC91B6
:102800005C978585282F16968D909D90AD90BC90F5
:102810001997B2E08B1A9108A108B10804C0880C7E
:10282000991CAA1CBB1C8A95D2F786859785A0891E
:10283000B189880D991DAA1DBB1D74807720B9F13F
:10284000872C912CB12CA12CE1E08E1A9108A108C3
:10285000B108880E991EAA1EBB1E83EFE82E83E0E6
:10286000F82E81E00E94D804882309F45ECFE3EFBC
:10287000F1E01192EE16FF06E1F780920A019092C4
:102880000B01A0920C01B0920D018091D0018160EA
:102890008093D0017A94F1E08F1A9108A108B108D1
:1028A0007110DFCFD8015B96ED91FC91258580E01A
:1028B00092E0A0E0B0E004C0880F991FAA1FBB1FE0
:1028C0002A95D2F7F8014389548965897689840F5E
:1028D000951FA61FB71F838B948BA58BB68BD60134
:1028E00052961C9283EF91E0FC013A9626E1DF01BB
:1028F0001D922A95E9F72BE0FE013196DC0101904B
:102900000D922A95E1F721E238E2FC01318B208B10
:1029100040E058E057874687338B228B318F208FDA
:10292000578B468B81E00E94D804882309F4FDCEA2
:10293000462DD60152966C91EECEF60166857785CE
:102940008089918941E00E940505882309F4EDCE34
:10295000D60152968C91B0E28B9FC00111248D500C
:102960009E4F009709F6E1CEEF92FF920F931F93CF
:10297000CF93DF93EC017B018A011B821A8288EEE0
:1029800093E0A0E0B0E08C839D83AE83BF8386E3B9
:1029900091E0998388838DE190E00E94711F9A8F66
:1029A000898F009779F02DE1F701DC0101900D92FC
:1029B0002A95E1F74CE050E0B801CE010C960E9458
:1029C0007021188EDF91CF911F910F91FF90EF90A2
:1029D00008951F920F920FB60F9211242F933F93D9
:1029E0004F935F936F937F938F939F93AF93BF9317
:1029F000EF93FF9385EF93E00E945301FF91EF91D6
:102A0000BF91AF919F918F917F916F915F914F9106
:102A10003F912F910F900FBE0F901F9018951F920E
:102A20000F920FB60F9211242F938F939F93EF93D2
:102A3000FF93E0910504F09106048081E0910B047E
:102A4000F0910C0482FF0BC08081FF91EF919F9168
:102A50008F912F910F900FBE0F901F90189520818E
:102A600080910E048F5F90910F04891771F3E091AC
:102A70000E04F0E0EB50FC4F258F80930E04E5CF61
:102A80001F920F920FB60F9211242F933F938F93A3
:102A90009F93AF93BF938091D4019091D501A09162
:102AA000D601B091D7013091D30123E0230F2D3708
:102AB00068F126E8230F0296A11DB11D2093D301D2
:102AC0008093D4019093D501A093D601B093D70100
:102AD0008091D9019091DA01A091DB01B091DC01E4
:102AE0000196A11DB11D8093D9019093DA01A093A5
:102AF000DB01B093DC01BF91AF919F918F913F912A
:102B00002F910F900FBE0F901F9018950196A11D49
:102B1000B11DD4CF1F920F920FB60F9211240F90B8
:102B20000FBE0F901F9018951F920F920FB60F9225
:102B300011240F931F932F933F934F935F936F93A2
:102B40007F938F939F93AF93BF93EF93FF93CF9315
:102B5000DF93CDB7DEB7C257D109DEBFCDBF8091BD
:102B6000BA019091BB01A091BC01B091BD01883E1A
:102B700023E09207A105B10538F50196A11DB11D0D
:102B80008093BA019093BB01A093BC01B093BD01A7
:102B9000CE58DF4F0FB6F894DEBF0FBECDBFDF912A
:102BA000CF91FF91EF91BF91AF919F918F917F91C5
:102BB0006F915F914F913F912F911F910F910F90C6
:102BC0000FBE0F901F9018958091B6019091B7019C
:102BD000A091B801B091B9010196A11DB11D8093DA
:102BE000B6019093B701A093B801B093B9011092C8
:102BF000BA011092BB011092BC011092BD011C825F
:102C00001B820AE211E01A8309831E82CE0101961B
:102C10000E9436098B819C819EAF8DAF1CAF0BAF9C
:102C20008D818FAF8E8121968FAF21974F815885EF
:102C300069857A8525964CAF5DAF6EAF7FAF2597DE
:102C40004B855C856D857E8529964CAF5DAF6EAFFB
:102C50007FAF29974F85588969897A892D964CAF1E
:102C60005DAF6EAF7FAF2D979B892E969FAF2E974E
:102C70004C895D896E897F8962964CAF5DAF6EAF7E
:102C80007FAF6297488D598D6A8D7B8D66964CAF6C
:102C90005DAF6EAF7FAF66972C8D3D8D68963FAF71
:102CA0002EAF689719A218A21F8F0E8F1BA2882320
:102CB00009F412C127E14AEA51E0BE01655C7F4F89
:102CC000CE014E960E94EB12882309F405C1CE0175
:102CD000CB960E94080C49A95AA96BA97CA9CE01E0
:102CE0004E960E94990988A199A19C838B831A838F
:102CF00009838AA18D838BA18E838CA19DA1AEA116
:102D0000BFA18F839887A987BA8788A599A5AAA507
:102D1000BBA58B879C87AD87BE878CA59DA5AEA5DF
:102D2000BFA58F87988BA98BBA8B88A98B8B89A914
:102D30009AA9ABA9BCA98C8B9D8BAE8BBF8B8DA99F
:102D40009EA9AFA9B8AD888F998FAA8FBB8F89AD87
:102D50009AAD9D8F8C8F8E01085A1F4F4AEA51E021
:102D6000BE016F5F7F4FC8010E94B414D801129654
:102D7000ED91FC91139714964D915D916D917C911D
:102D8000179759962D913C915A971C968C91F093D8
:102D90003006E0932F06409331065093320660933D
:102DA000330670933406F80140855185628573853A
:102DB0004093350650933606609337067093380675
:102DC000D8011D96E9E3F6E001C08D91819386E07C
:102DD000E634F807D1F730934706209346062115CD
:102DE000310509F4D5CED90115968C91882309F4C3
:102DF000CFCE1A8219821C821B821E821D8263EB37
:102E000071E0CE0101960E949C0F4091B601509155
:102E1000B7016091B8017091B901CE0101960E948D
:102E2000371262EB71E0CE0101960E94D20F409101
:102E3000EF015091F0016091F1017091F201CE012A
:102E400001960E94371262EB71E0CE0101960E945A
:102E5000D20F4091EB015091EC016091ED01709126
:102E6000EE01CE0101960E94371262EB71E0CE01B5
:102E700001960E94D20F4091E7015091E8016091C4
:102E8000E9017091EA01CE0101960E94371264EBCC
:102E900071E0CE0101960E94D20F4D815E81698161
:102EA0007A818DE296E00E94090F8091460690910A
:102EB0004706009761F00E94080C809146069091A9
:102EC00047060E940D201092470610924606CE013A
:102ED00001960E94690F5CCE8E01085A1F4FD801DF
:102EE00013961C921E92129788EE93E0A0E0B0E039
:102EF000F80184839583A683B78386E391E0918369
:102F00008083128E118E148680E030E020E048EE3F
:102F100053E060E070E0F0E0E0E039CF1F920F9204
:102F20000FB60F9211248F929F92AF92BF92CF92C1
:102F3000DF92EF92FF922F933F934F935F936F93A4
:102F40007F938F939F93AF93BF93EF93FF93809162
:102F50007C00807F80937C0080917C0080937C004B
:102F600080917A00806480937A0080917A0086FD57
:102F7000FCCF609178007091790090E080E00E9431
:102F80006E1D20E030E44CE950E40E94AB1D26E6C3
:102F900036E64CE852E40E94AB1D0E942C1F609361
:102FA000EF017093F0018093F1019093F201809111
:102FB0007C00807F80937C0080917C008160809386
:102FC0007C0080917A00806480937A0080917A00FE
:102FD00086FDFCCF609178007091790090E080E0F0
:102FE0000E946E1D20E030E44CE950E40E94AB1DCD
:102FF00025E535E545E551E40E94AB1D0E942C1FF7
:103000004B015C018092EB019092EC01A092ED01EA
:10301000B092EE01C090EF01D090F001E090F1018C
:10302000F090F201AC019B01C701B6010E945B1F49
:103030000E946E1D20E034E244E759E40E94BA1E6B
:103040000E942C1F6093E7017093E8018093E901CF
:103050009093EA0120E1C21629E0D20625E0E206BB
:10306000F10440F420E1821627E29206A104B104A3
:1030700008F4C8C06BE471E08DE995E00E9411107E
:103080001092CA011092BE011092BF011092C001AD
:103090001092C1011092C2011092C3011092C4019A
:1030A0001092C5011092C6011092C7011092C8017A
:1030B0001092C90110928B0010928A008091EF014A
:1030C0009091F001A091F101B091F201803199400D
:1030D000A540B10508F05D9A8091EB019091EC015B
:1030E000A091ED01B091EE0180319742A105B105AB
:1030F00008F05E9A8091E7019091E801A091E901C2
:10310000B091EA0180349D40A340B10508F078C039
:10311000C090EF01D090F001E090F101F090F20149
:103120008091BE019091BF01A091C001B091C101F9
:103130008C159D05AE05BF05D8F54091EB0150916A
:10314000EC016091ED017091EE018091C2019091CE
:10315000C301A091C401B091C501481759076A077E
:103160007B0730F54091E7015091E8016091E9015A
:103170007091EA018091C6019091C701A091C801A8
:10318000B091C901481759076A077B0788F4209155
:103190008A0030918B0080918800909189002817D7
:1031A0003907A8F480918A0090918B0001960BC09A
:1031B00080918A0090918B00892B49F080918A0040
:1031C00090918B00019790938B0080938A00FF91E0
:1031D000EF91BF91AF919F918F917F916F915F918F
:1031E0004F913F912F91FF90EF90DF90CF90BF9044
:1031F000AF909F908F900F900FBE0F901F901895DB
:103200005F9A86CF60347D408340910508F488CF73
:1032100031CFE5EFF3E01382128288EE93E0A0E075
:10322000B0E084839583A683B78328E131E03183BE
:10323000208325EC30E03587248724EC30E0378785
:10324000268720EC30E0318B208B21EC30E0338B73
:10325000228B22EC30E0358B248B26EC30E0378B50
:10326000268B118E128E138E148EE2E5F5E020E58A
:1032700020831182E4E5F5E015821682118613861B
:1032800042E050E060E070E04487558766877787CA
:1032900013A215A614A62AE231E033A722A717A687
:1032A000EDE2F6E01382128284839583A683B783CE
:1032B00086E391E091838083128E118E1486E1E281
:1032C000F6E0108281E081838AE691E09383828335
:1032D0001582148211861086138612861782168232
:1032E000E5E1F6E0108282E081838FE691E093834E
:1032F00082831582148211861086138612861782A5
:103300001682E9E0F6E0108283E0818384E791E0B1
:103310009383828315821482118610861386128607
:1033200017821682EDEFF5E0108284E0818389E751
:1033300091E093838283158214821186108613860E
:10334000128617821682E1EFF5E0108285E0818314
:103350008DE791E093838283158214821186108613
:103360001386128617821682E5EEF5E0108286E05B
:10337000818383E891E0938382831582148211868E
:1033800010861386128617821682E9EDF5E0108208
:1033900087E0818382E891E093838283158214829F
:1033A000118610861386128617821682EDECF5E0E0
:1033B000108288E0818389E891E09383828315827B
:1033C0001482118610861386128617821682E1EC0B
:1033D000F5E0108289E0818388E891E0938382831D
:1033E0001582148211861086138612861782168221
:1033F000E5EBF5E010828AE081838FE891E093832A
:103400008283158214821186108613861286178293
:103410001682E9EAF5E010828BE081838EE891E084
:1034200093838283158214821186108613861286F6
:1034300017821682EDE9F5E010828CE0818384E941
:1034400091E09383828315821482118610861386FD
:103450001286178216820895CF93DF93CDB7DEB719
:103460002A970FB6F894DEBF0FBECDBF789484B50F
:10347000826084BD84B5816084BD85B5826085BD70
:1034800085B5816085BD80916E00816080936E00FE
:1034900010928100809181008260809381008091F0
:1034A00081008160809381008091800081608093A1
:1034B00080008091B10084608093B1008091B00061
:1034C00081608093B00080917A00846080937A005C
:1034D00080917A00826080937A0080917A00816086
:1034E00080937A0080917A00806880937A001092AD
:1034F000C10082EE8AB983EE8BB917B818B88DE295
:1035000084B980E185B92FE133E0309389002093BD
:10351000880010928B0010928A008093800089E0CE
:103520008093810029EF27BD82E084BD94E095BDA2
:1035300080936E002093B3008093B0009093B1000D
:103540008093700080E480937C0084EC80937A0008
:1035500080917A0086FDFCCF0E948F0080918305C8
:10356000882321F08EE795E00E94080C10925F05F9
:1035700010925D0510925A051092590588E08093CB
:1035800058050E9435028B01809158050E94B700B2
:1035900061E0809158050E94E501FFB6F8948091A2
:1035A000D801811126C0EAEAF0E08491EEEBF0E068
:1035B0009491E82FF0E0EE0FFF1FEA56FF4FA59120
:1035C000B4918C91982321F461E08AE00E94E50196
:1035D0008AE00E94B7008CB580618CBD8CB5806498
:1035E0008CBD8DE00E94B7008BE00E94B7008091F7
:1035F000D8018F5F8093D801FFBE82E5809352058A
:10360000109253058CBD1DBC8AE09FEF9EBD00004B
:103610000DB407FEFDCF2EB58150C1F784E595E0CE
:103620000E94E80220E030E0A90160E084E595E036
:103630000E942A03F82E80935E0521E0821709F488
:103640001CC10E943502601B710B613D774050F335
:1036500081E08093590584E595E00E94FA020E947A
:103660008F0083EB91E00E943B0F8BE991E00E9479
:103670003B0F0E948E0283EA91E00E943B0F0E9462
:103680008E0283E091E190930606809305068DEF0C
:1036900095E090930806809307068BE590E1909360
:1036A000FA058093F90581EF95E09093FC058093EE
:1036B000FB0586E291E19093EE058093ED05109273
:1036C000F0051092EF0581E891E19093D605809383
:1036D000D5051092D8051092D7058CED91E1909305
:1036E000BE058093BD051092C0051092BF058BB139
:1036F0008F718BB914EE612E11E0712E8E010F5F68
:103700001F4F80E0E82E80E0F82E9AE0D92E85EF5A
:1037100093E00E943701181619060CF0DBC09FB722
:10372000F8944091D9015091DA016091DB017091D8
:10373000DC0186B5A89B06C08F3F21F04F5F5F4F2D
:103740006F4F7F4F9FBF762F652F542F4427480F11
:10375000511D611D711D440F551F661F771F440FBA
:10376000551F661F771FBAE08B2E912CA12CB12C10
:103770003FB7F8948091D9019091DA01A091DB01D3
:10378000B091DC0126B5A89B05C02F3F19F001962A
:10379000A11DB11D3FBFBA2FA92F982F8827820FD7
:1037A000911DA11DB11D880F991FAA1FBB1F880F56
:1037B000991FAA1FBB1F841B950BA60BB70B883E36
:1037C0009340A105B105A0F2F1E08F1A9108A1087C
:1037D000B10848515C4F6F4F7F4F81149104A10491
:1037E000B10431F685EF93E00E941601B82E85E60C
:1037F000B8128DCF85EF93E00E94370106970CF445
:1038000086CFB092DD018EEDA82E81E0B82E85EF37
:1038100093E00E941601F50181935F016E167F0609
:10382000B1F71092E4018091E1018F3F09F06FCF71
:103830008091E2018F3F09F06ACF8091E3018F3FD1
:1038400009F065CF4091E00150E070E060E08091C8
:10385000DF019091DE01A0910001B091010110976C
:1038600009F455CFE2E0F1E02C91921709F4C4C0BD
:10387000A191B1911097C1F74ACF2AEA31E040E017
:1038800050E068E084E595E00E942A0382FF71C061
:10389000F0925F05812C912C540120E030E0A901C9
:1038A00067E384E595E00E942A03A501940169E29B
:1038B00084E595E00E942A0380935E05882309F43D
:1038C00041C00E943502601B710B613D774028F3B7
:1038D00088E0BFCEF8012D2D11922A95E9F74AE034
:1038E000B8018091EF019091F0010E94441DB80150
:1038F00081E296E00E9411104AE0B8018091EB014C
:103900009091EC010E94441DB80185E196E00E946F
:1039100011104AE0B8018091E7019091E8010E94FE
:10392000441DB80189E096E00E941110E114F104F1
:1039300009F4EDCE0E943E01882309F4E8CE0E94EE
:103940000000E5CE80915F05823091F184E595E03D
:103950000E94FA0280E5809352051092530581E09F
:103960000E9450058823E9F08EE795E00E94360911
:1039700076CE84E02FEF2EBD00000DB407FEFDCF04
:103980009EB590935E058150B1F782E09A3A09F0B6
:1039900060CE80935F05812C912CA12C20E4B22E67
:1039A0007CCF80E00E945005882309F458CEDCCFFC
:1039B00020E030E0A9016AE384E595E00E942A0353
:1039C000882311F086E045CE8FEF8EBD00000DB448
:1039D00007FEFDCF8EB5807C803C19F483E0809398
:1039E0005F0583E09FEF9EBD00000DB407FEFDCF95
:1039F0002EB58150C1F7AACF11962C911197821341
:103A000037CF413051056105710589F0452B462BB3
:103A1000472B09F07CCE1896ED91FC9119973097C1
:103A200009F475CE1A968D919C91099570CE1496D5
:103A3000ED91FC911597309709F469CE16968D910A
:103A40009C91F3CFBB27FA01A62F62177105810560
:103A50009105330B30FB66F0AA27660F771F881F8E
:103A6000991FAA1FA21710F0A21B63953850A9F73F
:103A7000A05DAA3308F0A95DA19336F7B111B19307
:103A80001082CA010C945E1DBB27FB015527AA2793
:103A9000880F991FAA1FA41710F0A41B83955051DB
:103AA000B9F7A05DAA3308F0A95DA193009779F753
:103AB000B111B1931192CB010C945E1DDC01FC019C
:103AC000672F71917723E1F7329704C07C916D9352
:103AD00070836291AE17BF07C8F30895E89409C0D8
:103AE00097FB3EF490958095709561957F4F8F4F31
:103AF0009F4F9923A9F0F92F96E9BB279395F69547
:103B0000879577956795B795F111F8CFFAF4BB0FC4
:103B100011F460FF1BC06F5F7F4F8F4F9F4F16C028
:103B2000882311F096E911C0772321F09EE8872FB2
:103B3000762F05C0662371F096E8862F70E060E06E
:103B40002AF09A95660F771F881FDAF7880F9695E7
:103B5000879597F908950E94BE1D0C942F1E0E9410
:103B6000211E38F00E94281E20F0952311F00C949D
:103B7000181E0C941E1E11240C94631E0E94401EDD
:103B800070F3959FC1F3950F50E0551F629FF001B0
:103B9000729FBB27F00DB11D639FAA27F00DB11DC9
:103BA000AA1F649F6627B00DA11D661F829F222752
:103BB000B00DA11D621F739FB00DA11D621F839FD9
:103BC000A00D611D221F749F3327A00D611D231FAF
:103BD000849F600D211D822F762F6A2F11249F57FD
:103BE00050409AF0F1F088234AF0EE0FFF1FBB1F00
:103BF000661F771F881F91505040A9F79E3F5105BF
:103C000080F00C94181E0C94631E5F3FE4F3983E02
:103C1000D4F3869577956795B795F795E7959F5F68
:103C2000C1F7FE2B880F911D9695879597F90895FA
:103C300097F99F6780E870E060E008959FEF80EC5F
:103C4000089500240A941616170618060906089502
:103C500000240A9412161306140605060895092E68
:103C60000394000C11F4882352F0BB0F40F4BF2BD7
:103C700011F460FF04C06F5F7F4F8F4F9F4F089517
:103C800057FD9058440F551F59F05F3F71F047950D
:103C9000880F97FB991F61F09F3F79F087950895F2
:103CA000121613061406551FF2CF4695F1DF08C011
:103CB000161617061806991FF1CF8695710561052E
:103CC00008940895E894BB2766277727CB0197F9D6
:103CD00008950E94AB1EA59F900DB49F900DA49FC8
:103CE000800D911D112408952F923F924F925F9263
:103CF0006F927F928F929F92AF92BF92CF92DF92FC
:103D0000EF92FF920F931F93CF93DF93CDB7DEB760
:103D1000CA1BDB0B0FB6F894DEBF0FBECDBF0994F4
:103D20002A88398848885F846E847D848C849B844B
:103D3000AA84B984C884DF80EE80FD800C811B8159
:103D4000AA81B981CE0FD11D0FB6F894DEBF0FBE88
:103D5000CDBFED010895A29FB001B39FC001A39F05
:103D6000700D811D1124911DB29F700D811D1124B4
:103D7000911D08950E94CE1E0C942F1E0E94281E95
:103D800058F00E94211E40F029F45F3F29F00C9466
:103D9000181E51110C94631E0C941E1E0E94401E8E
:103DA00068F39923B1F3552391F3951B550BBB276A
:103DB000AA2762177307840738F09F5F5F4F220FAF
:103DC000331F441FAA1FA9F335D00E2E3AF0E0E8A6
:103DD00032D091505040E695001CCAF72BD0FE2FF0
:103DE00029D0660F771F881FBB1F26173707480784
:103DF000AB07B0E809F0BB0B802DBF01FF2793583C
:103E00005F4F3AF09E3F510578F00C94181E0C94C9
:103E1000631E5F3FE4F3983ED4F3869577956795EC
:103E2000B795F7959F5FC9F7880F911D9695879570
:103E300097F90895E1E0660F771F881FBB1F62178F
:103E400073078407BA0720F0621B730B840BBA0B4D
:103E5000EE1F88F7E09508950E94481E88F09F574E
:103E600098F0B92F9927B751B0F0E1F0660F771F9E
:103E7000881F991F1AF0BA95C9F714C0B13091F094
:103E80000E94621EB1E008950C94621E672F782F85
:103E90008827B85F39F0B93FCCF386957795679559
:103EA000B395D9F73EF490958095709561957F4FC5
:103EB0008F4F9F4F0895DB018F939F930E94691E40
:103EC000BF91AF91A29F800D911DA39F900DB29FB6
:103ED000900D11240895EE0FFF1F0590F491E02D31
:103EE00009940F931F93CF93DF938230910510F4C1
:103EF00082E090E0E0914A06F0914B0630E020E04D
:103F0000B0E0A0E0309799F42115310509F44AC0DA
:103F1000281B390B24303105D8F58A819B81611526
:103F2000710589F1FB0193838283FE0111C04081F9
:103F300051810281138148175907E0F0481759074A
:103F400099F4109761F012960C93129713961C93A4
:103F50003296CF01DF91CF911F910F910895009379
:103F60004A0610934B06F4CF2115310551F0421744
:103F7000530738F0A901DB019A01BD01DF01F80107
:103F8000C1CFEF01F9CF90934B0680934A06CDCF76
:103F9000FE01E20FF31F819391932250310939837F
:103FA0002883D7CF2091480630914906232B41F42E
:103FB0002091100130911101309349062093480659
:103FC00020910E0130910F012115310541F42DB7DB
:103FD0003EB74091120150911301241B350BE09123
:103FE0004806F0914906E217F307A0F42E1B3F0B99
:103FF0002817390778F0AC014E5F5F4F241735075B
:1040000048F04E0F5F1F5093490640934806819336
:1040100091939FCFF0E0E0E09CCFCF93DF930097A8
:10402000E9F0FC01329713821282A0914A06B09106
:104030004B06ED0130E020E01097A1F420813181A2
:10404000820F931F2091480630914906281739079F
:1040500009F061C0F0934906E0934806DF91CF91E3
:104060000895EA01CE17DF07E8F54A815B819E01DA
:1040700041155105B1F7E901FB83EA834991599153
:10408000C40FD51FEC17FD0761F480819181029662
:10409000840F951FE90199838883828193819B8393
:1040A0008A83F0E0E0E012968D919C91139700973F
:1040B000B9F52D913C911197CD010296820F931F76
:1040C00020914806309149062817390739F630976C
:1040D00051F510924B0610924A06B0934906A093F0
:1040E0004806BCCFD383C28340815181840F951F82
:1040F000C817D90761F44E5F5F4F88819981480FD7
:10410000591F518340838A819B8193838283211528
:10411000310509F0B0CFF0934B06E0934A069ECFED
:10412000FD01DC01C0CF13821282D7CFB0E0A0E046
:10413000ECE9F0E20C94761E8C01009751F4CB016F
:104140000E94711F8C01C801CDB7DEB7E0E10C946D
:10415000921EFC01E60FF71F9C0122503109E21765
:10416000F30708F49DC0D901CD91DC911197C617D2
:10417000D70798F0C530D10530F3CE0104978617E4
:10418000970708F3C61BD70B2297C193D1936D9362
:104190007C93CF010E940D20D6CF5B01AC1ABD0AE3
:1041A0004C018C0E9D1EA0914A06B0914B06512CDD
:1041B000412CF12CE12C109731F58091480690911B
:1041C00049068815990509F05CC04616570608F09F
:1041D00058C080910E0190910F01009741F48DB766
:1041E0009EB74091120150911301841B950BE81763
:1041F000F90708F055C0F0934906E0934806F90125
:1042000071836083A0CF8D919C91119712966C90D1
:10421000129713967C901397A815B90559F56C0160
:1042200042E0C40ED11CCA14DB0420F1AC014A19CF
:104230005B09DA011296159780F0628273825183CE
:104240004083D9016D937C93E114F10471F0D7019F
:104250001396FC93EE93129776CF22968C0F9D1FA8
:10426000F90191838083F301EFCFF0934B06E09344
:104270004A0669CF4816590608F42C017D01D3017E
:104280009ACFCB010E94711F7C01009749F0AE01CB
:10429000B8010E946021C8010E940D20870153CF00
:1042A00010E000E050CFFB01DC0104C08D910190D3
:1042B000801921F441505040C8F7881B990B08958C
:1042C000FB01DC0102C001900D9241505040D8F733
:1042D0000895FB01DC0101900D920020E1F70895A3
:1042E000FB01DC014150504048F001900D9200204C
:1042F000C9F701C01D9241505040E0F70895F8946D
:02430000FFCFED
:10430200FD05F105E505CD05B505FFFFFFFF000041
:104312004C068000000000007501D6000501C501B1
:1043220037011601290100000000670ED600A30B19
:10433200780E00000000250F090FF90E790E860E87
:10434200A70EC40E2E7478743D22005374617465F6
:104352003A204F46460067657420002E76616C0055
:1043620053746174653A204F4E007456696E00743E
:1043720049696E007450696E00624F6E00624F664A
:104382006600747356696E00747349696E007473C3
:1043920050696E0074537461746500626B636D647E
:1043A2003D3100706167652030006C6F672E747854
:0643B200740009000A007E
:00000001FF
